{
  "contractName": "MedicalCertificate",
  "abi": [
    {
      "inputs": [],
      "stateMutability": "nonpayable",
      "type": "constructor"
    },
    {
      "anonymous": false,
      "inputs": [
        {
          "indexed": true,
          "internalType": "address",
          "name": "owner",
          "type": "address"
        },
        {
          "indexed": true,
          "internalType": "address",
          "name": "approved",
          "type": "address"
        },
        {
          "indexed": true,
          "internalType": "uint256",
          "name": "tokenId",
          "type": "uint256"
        }
      ],
      "name": "Approval",
      "type": "event"
    },
    {
      "anonymous": false,
      "inputs": [
        {
          "indexed": true,
          "internalType": "address",
          "name": "owner",
          "type": "address"
        },
        {
          "indexed": true,
          "internalType": "address",
          "name": "operator",
          "type": "address"
        },
        {
          "indexed": false,
          "internalType": "bool",
          "name": "approved",
          "type": "bool"
        }
      ],
      "name": "ApprovalForAll",
      "type": "event"
    },
    {
      "anonymous": false,
      "inputs": [
        {
          "indexed": true,
          "internalType": "address",
          "name": "previousOwner",
          "type": "address"
        },
        {
          "indexed": true,
          "internalType": "address",
          "name": "newOwner",
          "type": "address"
        }
      ],
      "name": "OwnershipTransferred",
      "type": "event"
    },
    {
      "anonymous": false,
      "inputs": [
        {
          "indexed": true,
          "internalType": "address",
          "name": "from",
          "type": "address"
        },
        {
          "indexed": true,
          "internalType": "address",
          "name": "to",
          "type": "address"
        },
        {
          "indexed": true,
          "internalType": "uint256",
          "name": "tokenId",
          "type": "uint256"
        }
      ],
      "name": "Transfer",
      "type": "event"
    },
    {
      "inputs": [
        {
          "internalType": "address",
          "name": "to",
          "type": "address"
        },
        {
          "internalType": "uint256",
          "name": "tokenId",
          "type": "uint256"
        }
      ],
      "name": "approve",
      "outputs": [],
      "stateMutability": "nonpayable",
      "type": "function"
    },
    {
      "inputs": [
        {
          "internalType": "address",
          "name": "owner",
          "type": "address"
        }
      ],
      "name": "balanceOf",
      "outputs": [
        {
          "internalType": "uint256",
          "name": "",
          "type": "uint256"
        }
      ],
      "stateMutability": "view",
      "type": "function"
    },
    {
      "inputs": [
        {
          "internalType": "uint256",
          "name": "tokenId",
          "type": "uint256"
        }
      ],
      "name": "getApproved",
      "outputs": [
        {
          "internalType": "address",
          "name": "",
          "type": "address"
        }
      ],
      "stateMutability": "view",
      "type": "function"
    },
    {
      "inputs": [
        {
          "internalType": "address",
          "name": "owner",
          "type": "address"
        },
        {
          "internalType": "address",
          "name": "operator",
          "type": "address"
        }
      ],
      "name": "isApprovedForAll",
      "outputs": [
        {
          "internalType": "bool",
          "name": "",
          "type": "bool"
        }
      ],
      "stateMutability": "view",
      "type": "function"
    },
    {
      "inputs": [],
      "name": "name",
      "outputs": [
        {
          "internalType": "string",
          "name": "",
          "type": "string"
        }
      ],
      "stateMutability": "view",
      "type": "function"
    },
    {
      "inputs": [],
      "name": "owner",
      "outputs": [
        {
          "internalType": "address",
          "name": "",
          "type": "address"
        }
      ],
      "stateMutability": "view",
      "type": "function"
    },
    {
      "inputs": [
        {
          "internalType": "uint256",
          "name": "tokenId",
          "type": "uint256"
        }
      ],
      "name": "ownerOf",
      "outputs": [
        {
          "internalType": "address",
          "name": "",
          "type": "address"
        }
      ],
      "stateMutability": "view",
      "type": "function"
    },
    {
      "inputs": [],
      "name": "renounceOwnership",
      "outputs": [],
      "stateMutability": "nonpayable",
      "type": "function"
    },
    {
      "inputs": [
        {
          "internalType": "address",
          "name": "from",
          "type": "address"
        },
        {
          "internalType": "address",
          "name": "to",
          "type": "address"
        },
        {
          "internalType": "uint256",
          "name": "tokenId",
          "type": "uint256"
        }
      ],
      "name": "safeTransferFrom",
      "outputs": [],
      "stateMutability": "nonpayable",
      "type": "function"
    },
    {
      "inputs": [
        {
          "internalType": "address",
          "name": "from",
          "type": "address"
        },
        {
          "internalType": "address",
          "name": "to",
          "type": "address"
        },
        {
          "internalType": "uint256",
          "name": "tokenId",
          "type": "uint256"
        },
        {
          "internalType": "bytes",
          "name": "data",
          "type": "bytes"
        }
      ],
      "name": "safeTransferFrom",
      "outputs": [],
      "stateMutability": "nonpayable",
      "type": "function"
    },
    {
      "inputs": [
        {
          "internalType": "address",
          "name": "operator",
          "type": "address"
        },
        {
          "internalType": "bool",
          "name": "approved",
          "type": "bool"
        }
      ],
      "name": "setApprovalForAll",
      "outputs": [],
      "stateMutability": "nonpayable",
      "type": "function"
    },
    {
      "inputs": [],
      "name": "symbol",
      "outputs": [
        {
          "internalType": "string",
          "name": "",
          "type": "string"
        }
      ],
      "stateMutability": "view",
      "type": "function"
    },
    {
      "inputs": [
        {
          "internalType": "uint256",
          "name": "index",
          "type": "uint256"
        }
      ],
      "name": "tokenByIndex",
      "outputs": [
        {
          "internalType": "uint256",
          "name": "",
          "type": "uint256"
        }
      ],
      "stateMutability": "view",
      "type": "function"
    },
    {
      "inputs": [
        {
          "internalType": "address",
          "name": "owner",
          "type": "address"
        },
        {
          "internalType": "uint256",
          "name": "index",
          "type": "uint256"
        }
      ],
      "name": "tokenOfOwnerByIndex",
      "outputs": [
        {
          "internalType": "uint256",
          "name": "",
          "type": "uint256"
        }
      ],
      "stateMutability": "view",
      "type": "function"
    },
    {
      "inputs": [],
      "name": "totalSupply",
      "outputs": [
        {
          "internalType": "uint256",
          "name": "",
          "type": "uint256"
        }
      ],
      "stateMutability": "view",
      "type": "function"
    },
    {
      "inputs": [
        {
          "internalType": "address",
          "name": "from",
          "type": "address"
        },
        {
          "internalType": "address",
          "name": "to",
          "type": "address"
        },
        {
          "internalType": "uint256",
          "name": "tokenId",
          "type": "uint256"
        }
      ],
      "name": "transferFrom",
      "outputs": [],
      "stateMutability": "nonpayable",
      "type": "function"
    },
    {
      "inputs": [
        {
          "internalType": "address",
          "name": "newOwner",
          "type": "address"
        }
      ],
      "name": "transferOwnership",
      "outputs": [],
      "stateMutability": "nonpayable",
      "type": "function"
    },
    {
      "inputs": [
        {
          "internalType": "string",
          "name": "symptoms",
          "type": "string"
        },
        {
          "internalType": "string",
          "name": "levels",
          "type": "string"
        },
        {
          "internalType": "address",
          "name": "patient",
          "type": "address"
        }
      ],
      "name": "addCertificate",
      "outputs": [],
      "stateMutability": "nonpayable",
      "type": "function"
    },
    {
      "inputs": [
        {
          "internalType": "uint256",
          "name": "id",
          "type": "uint256"
        }
      ],
      "name": "getSymptoms",
      "outputs": [
        {
          "internalType": "string",
          "name": "symptoms",
          "type": "string"
        }
      ],
      "stateMutability": "view",
      "type": "function"
    },
    {
      "inputs": [
        {
          "internalType": "uint256",
          "name": "id",
          "type": "uint256"
        }
      ],
      "name": "getLevels",
      "outputs": [
        {
          "internalType": "string",
          "name": "levels",
          "type": "string"
        }
      ],
      "stateMutability": "view",
      "type": "function"
    },
    {
      "inputs": [
        {
          "internalType": "address",
          "name": "_address",
          "type": "address"
        }
      ],
      "name": "listCertificatesIdOfAddress",
      "outputs": [
        {
          "internalType": "uint256[]",
          "name": "certificateIds",
          "type": "uint256[]"
        }
      ],
      "stateMutability": "view",
      "type": "function"
    },
    {
      "inputs": [
        {
          "internalType": "address",
          "name": "patient",
          "type": "address"
        }
      ],
      "name": "cleanAllCertificate",
      "outputs": [],
      "stateMutability": "nonpayable",
      "type": "function"
    },
    {
      "inputs": [
        {
          "internalType": "bytes4",
          "name": "interfaceId",
          "type": "bytes4"
        }
      ],
      "name": "supportsInterface",
      "outputs": [
        {
          "internalType": "bool",
          "name": "",
          "type": "bool"
        }
      ],
      "stateMutability": "view",
      "type": "function"
    },
    {
      "inputs": [
        {
          "internalType": "uint256",
          "name": "tokenId",
          "type": "uint256"
        }
      ],
      "name": "tokenURI",
      "outputs": [
        {
          "internalType": "string",
          "name": "",
          "type": "string"
        }
      ],
      "stateMutability": "view",
      "type": "function"
    }
  ],
  "bytecode": "0x60806040523480156200001157600080fd5b506040518060400160405280601281526020017f4d65646963616c436572746966696361746500000000000000000000000000008152506040518060400160405280600281526020017f4d4300000000000000000000000000000000000000000000000000000000000081525081600090816200008f919062000412565b508060019081620000a1919062000412565b505050620000c4620000b8620000ca60201b60201c565b620000d260201b60201c565b620004f9565b600033905090565b6000600b60009054906101000a900473ffffffffffffffffffffffffffffffffffffffff16905081600b60006101000a81548173ffffffffffffffffffffffffffffffffffffffff021916908373ffffffffffffffffffffffffffffffffffffffff1602179055508173ffffffffffffffffffffffffffffffffffffffff168173ffffffffffffffffffffffffffffffffffffffff167f8be0079c531659141344cd1fd0a4f28419497f9722a3daafe3b4186f6b6457e060405160405180910390a35050565b600081519050919050565b7f4e487b7100000000000000000000000000000000000000000000000000000000600052604160045260246000fd5b7f4e487b7100000000000000000000000000000000000000000000000000000000600052602260045260246000fd5b600060028204905060018216806200021a57607f821691505b60208210810362000230576200022f620001d2565b5b50919050565b60008190508160005260206000209050919050565b60006020601f8301049050919050565b600082821b905092915050565b6000600883026200029a7fffffffffffffffffffffffffffffffffffffffffffffffffffffffffffffffff826200025b565b620002a686836200025b565b95508019841693508086168417925050509392505050565b6000819050919050565b6000819050919050565b6000620002f3620002ed620002e784620002be565b620002c8565b620002be565b9050919050565b6000819050919050565b6200030f83620002d2565b620003276200031e82620002fa565b84845462000268565b825550505050565b600090565b6200033e6200032f565b6200034b81848462000304565b505050565b5b8181101562000373576200036760008262000334565b60018101905062000351565b5050565b601f821115620003c2576200038c8162000236565b62000397846200024b565b81016020851015620003a7578190505b620003bf620003b6856200024b565b83018262000350565b50505b505050565b600082821c905092915050565b6000620003e760001984600802620003c7565b1980831691505092915050565b6000620004028383620003d4565b9150826002028217905092915050565b6200041d8262000198565b67ffffffffffffffff811115620004395762000438620001a3565b5b62000445825462000201565b6200045282828562000377565b600060209050601f8311600181146200048a576000841562000475578287015190505b620004818582620003f4565b865550620004f1565b601f1984166200049a8662000236565b60005b82811015620004c4578489015182556001820191506020850194506020810190506200049d565b86831015620004e45784890151620004e0601f891682620003d4565b8355505b6001600288020188555050505b505050505050565b613e4580620005096000396000f3fe608060405234801561001057600080fd5b50600436106101585760003560e01c806370a08231116100c3578063b30646661161007c578063b3064666146103d7578063b88d4fde14610407578063c87b56dd14610423578063e985e9c514610453578063f2fde38b14610483578063f43785f91461049f57610158565b806370a0823114610329578063715018a6146103595780637937c2bf146103635780638da5cb5b1461037f57806395d89b411461039d578063a22cb465146103bb57610158565b80632f745c59116101155780632f745c5914610231578063362846dc1461026157806342842e0e1461027d5780634f6ccce7146102995780635e19e975146102c95780636352211e146102f957610158565b806301ffc9a71461015d57806306fdde031461018d578063081812fc146101ab578063095ea7b3146101db57806318160ddd146101f757806323b872dd14610215575b600080fd5b610177600480360381019061017291906128f4565b6104cf565b604051610184919061293c565b60405180910390f35b6101956104e1565b6040516101a291906129e7565b60405180910390f35b6101c560048036038101906101c09190612a3f565b610573565b6040516101d29190612aad565b60405180910390f35b6101f560048036038101906101f09190612af4565b6105b9565b005b6101ff6106d0565b60405161020c9190612b43565b60405180910390f35b61022f600480360381019061022a9190612b5e565b6106dd565b005b61024b60048036038101906102469190612af4565b61073d565b6040516102589190612b43565b60405180910390f35b61027b60048036038101906102769190612c16565b6107e2565b005b61029760048036038101906102929190612b5e565b61085a565b005b6102b360048036038101906102ae9190612a3f565b61087a565b6040516102c09190612b43565b60405180910390f35b6102e360048036038101906102de9190612cab565b6108eb565b6040516102f09190612d96565b60405180910390f35b610313600480360381019061030e9190612a3f565b610999565b6040516103209190612aad565b60405180910390f35b610343600480360381019061033e9190612cab565b610a1f565b6040516103509190612b43565b60405180910390f35b610361610ad6565b005b61037d60048036038101906103789190612cab565b610aea565b005b610387610b35565b6040516103949190612aad565b60405180910390f35b6103a5610b5f565b6040516103b291906129e7565b60405180910390f35b6103d560048036038101906103d09190612de4565b610bf1565b005b6103f160048036038101906103ec9190612a3f565b610c07565b6040516103fe91906129e7565b60405180910390f35b610421600480360381019061041c9190612f54565b610cac565b005b61043d60048036038101906104389190612a3f565b610d0e565b60405161044a91906129e7565b60405180910390f35b61046d60048036038101906104689190612fd7565b610d20565b60405161047a919061293c565b60405180910390f35b61049d60048036038101906104989190612cab565b610db4565b005b6104b960048036038101906104b49190612a3f565b610e37565b6040516104c691906129e7565b60405180910390f35b60006104da82610edc565b9050919050565b6060600080546104f090613046565b80601f016020809104026020016040519081016040528092919081815260200182805461051c90613046565b80156105695780601f1061053e57610100808354040283529160200191610569565b820191906000526020600020905b81548152906001019060200180831161054c57829003601f168201915b5050505050905090565b600061057e82610f56565b6004600083815260200190815260200160002060009054906101000a900473ffffffffffffffffffffffffffffffffffffffff169050919050565b60006105c482610999565b90508073ffffffffffffffffffffffffffffffffffffffff168373ffffffffffffffffffffffffffffffffffffffff1603610634576040517f08c379a000000000000000000000000000000000000000000000000000000000815260040161062b906130e9565b60405180910390fd5b8073ffffffffffffffffffffffffffffffffffffffff16610653610fa1565b73ffffffffffffffffffffffffffffffffffffffff16148061068257506106818161067c610fa1565b610d20565b5b6106c1576040517f08c379a00000000000000000000000000000000000000000000000000000000081526004016106b89061317b565b60405180910390fd5b6106cb8383610fa9565b505050565b6000600880549050905090565b6106ee6106e8610fa1565b82611062565b61072d576040517f08c379a00000000000000000000000000000000000000000000000000000000081526004016107249061320d565b60405180910390fd5b6107388383836110f7565b505050565b600061074883610a1f565b8210610789576040517f08c379a00000000000000000000000000000000000000000000000000000000081526004016107809061329f565b60405180910390fd5b600660008473ffffffffffffffffffffffffffffffffffffffff1673ffffffffffffffffffffffffffffffffffffffff168152602001908152602001600020600083815260200190815260200160002054905092915050565b6107ea6113f0565b60006107f6600c61146e565b9050610802600c61147c565b61080c8282611492565b8585600d6000848152602001908152602001600020918261082e929190613476565b508383600e60008481526020019081526020016000209182610851929190613476565b50505050505050565b61087583838360405180602001604052806000815250610cac565b505050565b60006108846106d0565b82106108c5576040517f08c379a00000000000000000000000000000000000000000000000000000000081526004016108bc906135b8565b60405180910390fd5b600882815481106108d9576108d86135d8565b5b90600052602060002001549050919050565b606060006108f883610a1f565b905060008167ffffffffffffffff81111561091657610915612e29565b5b6040519080825280602002602001820160405280156109445781602001602082028036833780820191505090505b50905060005b8281101561098e5761095c858261073d565b82828151811061096f5761096e6135d8565b5b602002602001018181525050808061098690613636565b91505061094a565b508092505050919050565b6000806109a5836114b0565b9050600073ffffffffffffffffffffffffffffffffffffffff168173ffffffffffffffffffffffffffffffffffffffff1603610a16576040517f08c379a0000000000000000000000000000000000000000000000000000000008152600401610a0d906136ca565b60405180910390fd5b80915050919050565b60008073ffffffffffffffffffffffffffffffffffffffff168273ffffffffffffffffffffffffffffffffffffffff1603610a8f576040517f08c379a0000000000000000000000000000000000000000000000000000000008152600401610a869061375c565b60405180910390fd5b600360008373ffffffffffffffffffffffffffffffffffffffff1673ffffffffffffffffffffffffffffffffffffffff168152602001908152602001600020549050919050565b610ade6113f0565b610ae860006114ed565b565b610af26113f0565b6000610afd82610a1f565b905060005b81811015610b3057610b1d610b1884600061073d565b6115b3565b8080610b2890613636565b915050610b02565b505050565b6000600b60009054906101000a900473ffffffffffffffffffffffffffffffffffffffff16905090565b606060018054610b6e90613046565b80601f0160208091040260200160405190810160405280929190818152602001828054610b9a90613046565b8015610be75780601f10610bbc57610100808354040283529160200191610be7565b820191906000526020600020905b815481529060010190602001808311610bca57829003601f168201915b5050505050905090565b610c03610bfc610fa1565b83836115bf565b5050565b6060600d60008381526020019081526020016000208054610c2790613046565b80601f0160208091040260200160405190810160405280929190818152602001828054610c5390613046565b8015610ca05780601f10610c7557610100808354040283529160200191610ca0565b820191906000526020600020905b815481529060010190602001808311610c8357829003601f168201915b50505050509050919050565b610cbd610cb7610fa1565b83611062565b610cfc576040517f08c379a0000000000000000000000000000000000000000000000000000000008152600401610cf39061320d565b60405180910390fd5b610d088484848461172b565b50505050565b6060610d1982611787565b9050919050565b6000600560008473ffffffffffffffffffffffffffffffffffffffff1673ffffffffffffffffffffffffffffffffffffffff16815260200190815260200160002060008373ffffffffffffffffffffffffffffffffffffffff1673ffffffffffffffffffffffffffffffffffffffff16815260200190815260200160002060009054906101000a900460ff16905092915050565b610dbc6113f0565b600073ffffffffffffffffffffffffffffffffffffffff168173ffffffffffffffffffffffffffffffffffffffff1603610e2b576040517f08c379a0000000000000000000000000000000000000000000000000000000008152600401610e22906137ee565b60405180910390fd5b610e34816114ed565b50565b6060600e60008381526020019081526020016000208054610e5790613046565b80601f0160208091040260200160405190810160405280929190818152602001828054610e8390613046565b8015610ed05780601f10610ea557610100808354040283529160200191610ed0565b820191906000526020600020905b815481529060010190602001808311610eb357829003601f168201915b50505050509050919050565b60007f780e9d63000000000000000000000000000000000000000000000000000000007bffffffffffffffffffffffffffffffffffffffffffffffffffffffff1916827bffffffffffffffffffffffffffffffffffffffffffffffffffffffff19161480610f4f5750610f4e82611899565b5b9050919050565b610f5f8161197b565b610f9e576040517f08c379a0000000000000000000000000000000000000000000000000000000008152600401610f95906136ca565b60405180910390fd5b50565b600033905090565b816004600083815260200190815260200160002060006101000a81548173ffffffffffffffffffffffffffffffffffffffff021916908373ffffffffffffffffffffffffffffffffffffffff160217905550808273ffffffffffffffffffffffffffffffffffffffff1661101c83610999565b73ffffffffffffffffffffffffffffffffffffffff167f8c5be1e5ebec7d5bd14f71427d1e84f3dd0314c0f7b2291e5b200ac8c7c3b92560405160405180910390a45050565b60008061106e83610999565b90508073ffffffffffffffffffffffffffffffffffffffff168473ffffffffffffffffffffffffffffffffffffffff1614806110b057506110af8185610d20565b5b806110ee57508373ffffffffffffffffffffffffffffffffffffffff166110d684610573565b73ffffffffffffffffffffffffffffffffffffffff16145b91505092915050565b8273ffffffffffffffffffffffffffffffffffffffff1661111782610999565b73ffffffffffffffffffffffffffffffffffffffff161461116d576040517f08c379a000000000000000000000000000000000000000000000000000000000815260040161116490613880565b60405180910390fd5b600073ffffffffffffffffffffffffffffffffffffffff168273ffffffffffffffffffffffffffffffffffffffff16036111dc576040517f08c379a00000000000000000000000000000000000000000000000000000000081526004016111d390613912565b60405180910390fd5b6111e983838360016119bc565b8273ffffffffffffffffffffffffffffffffffffffff1661120982610999565b73ffffffffffffffffffffffffffffffffffffffff161461125f576040517f08c379a000000000000000000000000000000000000000000000000000000000815260040161125690613880565b60405180910390fd5b6004600082815260200190815260200160002060006101000a81549073ffffffffffffffffffffffffffffffffffffffff02191690556001600360008573ffffffffffffffffffffffffffffffffffffffff1673ffffffffffffffffffffffffffffffffffffffff168152602001908152602001600020600082825403925050819055506001600360008473ffffffffffffffffffffffffffffffffffffffff1673ffffffffffffffffffffffffffffffffffffffff16815260200190815260200160002060008282540192505081905550816002600083815260200190815260200160002060006101000a81548173ffffffffffffffffffffffffffffffffffffffff021916908373ffffffffffffffffffffffffffffffffffffffff160217905550808273ffffffffffffffffffffffffffffffffffffffff168473ffffffffffffffffffffffffffffffffffffffff167fddf252ad1be2c89b69c2b068fc378daa952ba7f163c4a11628f55a4df523b3ef60405160405180910390a46113eb83838360016119ce565b505050565b6113f8610fa1565b73ffffffffffffffffffffffffffffffffffffffff16611416610b35565b73ffffffffffffffffffffffffffffffffffffffff161461146c576040517f08c379a00000000000000000000000000000000000000000000000000000000081526004016114639061397e565b60405180910390fd5b565b600081600001549050919050565b6001816000016000828254019250508190555050565b6114ac8282604051806020016040528060008152506119d4565b5050565b60006002600083815260200190815260200160002060009054906101000a900473ffffffffffffffffffffffffffffffffffffffff169050919050565b6000600b60009054906101000a900473ffffffffffffffffffffffffffffffffffffffff16905081600b60006101000a81548173ffffffffffffffffffffffffffffffffffffffff021916908373ffffffffffffffffffffffffffffffffffffffff1602179055508173ffffffffffffffffffffffffffffffffffffffff168173ffffffffffffffffffffffffffffffffffffffff167f8be0079c531659141344cd1fd0a4f28419497f9722a3daafe3b4186f6b6457e060405160405180910390a35050565b6115bc81611a2f565b50565b8173ffffffffffffffffffffffffffffffffffffffff168373ffffffffffffffffffffffffffffffffffffffff160361162d576040517f08c379a0000000000000000000000000000000000000000000000000000000008152600401611624906139ea565b60405180910390fd5b80600560008573ffffffffffffffffffffffffffffffffffffffff1673ffffffffffffffffffffffffffffffffffffffff16815260200190815260200160002060008473ffffffffffffffffffffffffffffffffffffffff1673ffffffffffffffffffffffffffffffffffffffff16815260200190815260200160002060006101000a81548160ff0219169083151502179055508173ffffffffffffffffffffffffffffffffffffffff168373ffffffffffffffffffffffffffffffffffffffff167f17307eab39ab6107e8899845ad3d59bd9653f200f220920489ca2b5937696c318360405161171e919061293c565b60405180910390a3505050565b6117368484846110f7565b61174284848484611a82565b611781576040517f08c379a000000000000000000000000000000000000000000000000000000000815260040161177890613a7c565b60405180910390fd5b50505050565b606061179282610f56565b6000600a600084815260200190815260200160002080546117b290613046565b80601f01602080910402602001604051908101604052809291908181526020018280546117de90613046565b801561182b5780601f106118005761010080835404028352916020019161182b565b820191906000526020600020905b81548152906001019060200180831161180e57829003601f168201915b50505050509050600061183c611c09565b90506000815103611851578192505050611894565b60008251111561188657808260405160200161186e929190613ad8565b60405160208183030381529060405292505050611894565b61188f84611c20565b925050505b919050565b60007f80ac58cd000000000000000000000000000000000000000000000000000000007bffffffffffffffffffffffffffffffffffffffffffffffffffffffff1916827bffffffffffffffffffffffffffffffffffffffffffffffffffffffff1916148061196457507f5b5e139f000000000000000000000000000000000000000000000000000000007bffffffffffffffffffffffffffffffffffffffffffffffffffffffff1916827bffffffffffffffffffffffffffffffffffffffffffffffffffffffff1916145b80611974575061197382611c88565b5b9050919050565b60008073ffffffffffffffffffffffffffffffffffffffff1661199d836114b0565b73ffffffffffffffffffffffffffffffffffffffff1614159050919050565b6119c884848484611cf2565b50505050565b50505050565b6119de8383611e50565b6119eb6000848484611a82565b611a2a576040517f08c379a0000000000000000000000000000000000000000000000000000000008152600401611a2190613a7c565b60405180910390fd5b505050565b611a388161206d565b6000600a60008381526020019081526020016000208054611a5890613046565b905014611a7f57600a60008281526020019081526020016000206000611a7e919061282b565b5b50565b6000611aa38473ffffffffffffffffffffffffffffffffffffffff166121bb565b15611bfc578373ffffffffffffffffffffffffffffffffffffffff1663150b7a02611acc610fa1565b8786866040518563ffffffff1660e01b8152600401611aee9493929190613b51565b6020604051808303816000875af1925050508015611b2a57506040513d601f19601f82011682018060405250810190611b279190613bb2565b60015b611bac573d8060008114611b5a576040519150601f19603f3d011682016040523d82523d6000602084013e611b5f565b606091505b506000815103611ba4576040517f08c379a0000000000000000000000000000000000000000000000000000000008152600401611b9b90613a7c565b60405180910390fd5b805181602001fd5b63150b7a0260e01b7bffffffffffffffffffffffffffffffffffffffffffffffffffffffff1916817bffffffffffffffffffffffffffffffffffffffffffffffffffffffff191614915050611c01565b600190505b949350505050565b606060405180602001604052806000815250905090565b6060611c2b82610f56565b6000611c35611c09565b90506000815111611c555760405180602001604052806000815250611c80565b80611c5f846121de565b604051602001611c70929190613ad8565b6040516020818303038152906040525b915050919050565b60007f01ffc9a7000000000000000000000000000000000000000000000000000000007bffffffffffffffffffffffffffffffffffffffffffffffffffffffff1916827bffffffffffffffffffffffffffffffffffffffffffffffffffffffff1916149050919050565b611cfe848484846122ac565b6001811115611d42576040517f08c379a0000000000000000000000000000000000000000000000000000000008152600401611d3990613c51565b60405180910390fd5b6000829050600073ffffffffffffffffffffffffffffffffffffffff168573ffffffffffffffffffffffffffffffffffffffff1603611d8957611d84816123d2565b611dc8565b8373ffffffffffffffffffffffffffffffffffffffff168573ffffffffffffffffffffffffffffffffffffffff1614611dc757611dc6858261241b565b5b5b600073ffffffffffffffffffffffffffffffffffffffff168473ffffffffffffffffffffffffffffffffffffffff1603611e0a57611e0581612588565b611e49565b8473ffffffffffffffffffffffffffffffffffffffff168473ffffffffffffffffffffffffffffffffffffffff1614611e4857611e478482612659565b5b5b5050505050565b600073ffffffffffffffffffffffffffffffffffffffff168273ffffffffffffffffffffffffffffffffffffffff1603611ebf576040517f08c379a0000000000000000000000000000000000000000000000000000000008152600401611eb690613cbd565b60405180910390fd5b611ec88161197b565b15611f08576040517f08c379a0000000000000000000000000000000000000000000000000000000008152600401611eff90613d29565b60405180910390fd5b611f166000838360016119bc565b611f1f8161197b565b15611f5f576040517f08c379a0000000000000000000000000000000000000000000000000000000008152600401611f5690613d29565b60405180910390fd5b6001600360008473ffffffffffffffffffffffffffffffffffffffff1673ffffffffffffffffffffffffffffffffffffffff16815260200190815260200160002060008282540192505081905550816002600083815260200190815260200160002060006101000a81548173ffffffffffffffffffffffffffffffffffffffff021916908373ffffffffffffffffffffffffffffffffffffffff160217905550808273ffffffffffffffffffffffffffffffffffffffff16600073ffffffffffffffffffffffffffffffffffffffff167fddf252ad1be2c89b69c2b068fc378daa952ba7f163c4a11628f55a4df523b3ef60405160405180910390a46120696000838360016119ce565b5050565b600061207882610999565b90506120888160008460016119bc565b61209182610999565b90506004600083815260200190815260200160002060006101000a81549073ffffffffffffffffffffffffffffffffffffffff02191690556001600360008373ffffffffffffffffffffffffffffffffffffffff1673ffffffffffffffffffffffffffffffffffffffff168152602001908152602001600020600082825403925050819055506002600083815260200190815260200160002060006101000a81549073ffffffffffffffffffffffffffffffffffffffff021916905581600073ffffffffffffffffffffffffffffffffffffffff168273ffffffffffffffffffffffffffffffffffffffff167fddf252ad1be2c89b69c2b068fc378daa952ba7f163c4a11628f55a4df523b3ef60405160405180910390a46121b78160008460016119ce565b5050565b6000808273ffffffffffffffffffffffffffffffffffffffff163b119050919050565b6060600060016121ed846126d8565b01905060008167ffffffffffffffff81111561220c5761220b612e29565b5b6040519080825280601f01601f19166020018201604052801561223e5781602001600182028036833780820191505090505b509050600082602001820190505b6001156122a1578080600190039150507f3031323334353637383961626364656600000000000000000000000000000000600a86061a8153600a858161229557612294613d49565b5b0494506000850361224c575b819350505050919050565b60018111156123cc57600073ffffffffffffffffffffffffffffffffffffffff168473ffffffffffffffffffffffffffffffffffffffff16146123405780600360008673ffffffffffffffffffffffffffffffffffffffff1673ffffffffffffffffffffffffffffffffffffffff16815260200190815260200160002060008282546123389190613d78565b925050819055505b600073ffffffffffffffffffffffffffffffffffffffff168373ffffffffffffffffffffffffffffffffffffffff16146123cb5780600360008573ffffffffffffffffffffffffffffffffffffffff1673ffffffffffffffffffffffffffffffffffffffff16815260200190815260200160002060008282546123c39190613dac565b925050819055505b5b50505050565b6008805490506009600083815260200190815260200160002081905550600881908060018154018082558091505060019003906000526020600020016000909190919091505550565b6000600161242884610a1f565b6124329190613d78565b9050600060076000848152602001908152602001600020549050818114612517576000600660008673ffffffffffffffffffffffffffffffffffffffff1673ffffffffffffffffffffffffffffffffffffffff168152602001908152602001600020600084815260200190815260200160002054905080600660008773ffffffffffffffffffffffffffffffffffffffff1673ffffffffffffffffffffffffffffffffffffffff168152602001908152602001600020600084815260200190815260200160002081905550816007600083815260200190815260200160002081905550505b6007600084815260200190815260200160002060009055600660008573ffffffffffffffffffffffffffffffffffffffff1673ffffffffffffffffffffffffffffffffffffffff16815260200190815260200160002060008381526020019081526020016000206000905550505050565b6000600160088054905061259c9190613d78565b90506000600960008481526020019081526020016000205490506000600883815481106125cc576125cb6135d8565b5b9060005260206000200154905080600883815481106125ee576125ed6135d8565b5b90600052602060002001819055508160096000838152602001908152602001600020819055506009600085815260200190815260200160002060009055600880548061263d5761263c613de0565b5b6001900381819060005260206000200160009055905550505050565b600061266483610a1f565b905081600660008573ffffffffffffffffffffffffffffffffffffffff1673ffffffffffffffffffffffffffffffffffffffff168152602001908152602001600020600083815260200190815260200160002081905550806007600084815260200190815260200160002081905550505050565b600080600090507a184f03e93ff9f4daa797ed6e38ed64bf6a1f0100000000000000008310612736577a184f03e93ff9f4daa797ed6e38ed64bf6a1f010000000000000000838161272c5761272b613d49565b5b0492506040810190505b6d04ee2d6d415b85acef81000000008310612773576d04ee2d6d415b85acef8100000000838161276957612768613d49565b5b0492506020810190505b662386f26fc1000083106127a257662386f26fc10000838161279857612797613d49565b5b0492506010810190505b6305f5e10083106127cb576305f5e10083816127c1576127c0613d49565b5b0492506008810190505b61271083106127f05761271083816127e6576127e5613d49565b5b0492506004810190505b60648310612813576064838161280957612808613d49565b5b0492506002810190505b600a8310612822576001810190505b80915050919050565b50805461283790613046565b6000825580601f106128495750612868565b601f016020900490600052602060002090810190612867919061286b565b5b50565b5b8082111561288457600081600090555060010161286c565b5090565b6000604051905090565b600080fd5b600080fd5b60007fffffffff0000000000000000000000000000000000000000000000000000000082169050919050565b6128d18161289c565b81146128dc57600080fd5b50565b6000813590506128ee816128c8565b92915050565b60006020828403121561290a57612909612892565b5b6000612918848285016128df565b91505092915050565b60008115159050919050565b61293681612921565b82525050565b6000602082019050612951600083018461292d565b92915050565b600081519050919050565b600082825260208201905092915050565b60005b83811015612991578082015181840152602081019050612976565b60008484015250505050565b6000601f19601f8301169050919050565b60006129b982612957565b6129c38185612962565b93506129d3818560208601612973565b6129dc8161299d565b840191505092915050565b60006020820190508181036000830152612a0181846129ae565b905092915050565b6000819050919050565b612a1c81612a09565b8114612a2757600080fd5b50565b600081359050612a3981612a13565b92915050565b600060208284031215612a5557612a54612892565b5b6000612a6384828501612a2a565b91505092915050565b600073ffffffffffffffffffffffffffffffffffffffff82169050919050565b6000612a9782612a6c565b9050919050565b612aa781612a8c565b82525050565b6000602082019050612ac26000830184612a9e565b92915050565b612ad181612a8c565b8114612adc57600080fd5b50565b600081359050612aee81612ac8565b92915050565b60008060408385031215612b0b57612b0a612892565b5b6000612b1985828601612adf565b9250506020612b2a85828601612a2a565b9150509250929050565b612b3d81612a09565b82525050565b6000602082019050612b586000830184612b34565b92915050565b600080600060608486031215612b7757612b76612892565b5b6000612b8586828701612adf565b9350506020612b9686828701612adf565b9250506040612ba786828701612a2a565b9150509250925092565b600080fd5b600080fd5b600080fd5b60008083601f840112612bd657612bd5612bb1565b5b8235905067ffffffffffffffff811115612bf357612bf2612bb6565b5b602083019150836001820283011115612c0f57612c0e612bbb565b5b9250929050565b600080600080600060608688031215612c3257612c31612892565b5b600086013567ffffffffffffffff811115612c5057612c4f612897565b5b612c5c88828901612bc0565b9550955050602086013567ffffffffffffffff811115612c7f57612c7e612897565b5b612c8b88828901612bc0565b93509350506040612c9e88828901612adf565b9150509295509295909350565b600060208284031215612cc157612cc0612892565b5b6000612ccf84828501612adf565b91505092915050565b600081519050919050565b600082825260208201905092915050565b6000819050602082019050919050565b612d0d81612a09565b82525050565b6000612d1f8383612d04565b60208301905092915050565b6000602082019050919050565b6000612d4382612cd8565b612d4d8185612ce3565b9350612d5883612cf4565b8060005b83811015612d89578151612d708882612d13565b9750612d7b83612d2b565b925050600181019050612d5c565b5085935050505092915050565b60006020820190508181036000830152612db08184612d38565b905092915050565b612dc181612921565b8114612dcc57600080fd5b50565b600081359050612dde81612db8565b92915050565b60008060408385031215612dfb57612dfa612892565b5b6000612e0985828601612adf565b9250506020612e1a85828601612dcf565b9150509250929050565b600080fd5b7f4e487b7100000000000000000000000000000000000000000000000000000000600052604160045260246000fd5b612e618261299d565b810181811067ffffffffffffffff82111715612e8057612e7f612e29565b5b80604052505050565b6000612e93612888565b9050612e9f8282612e58565b919050565b600067ffffffffffffffff821115612ebf57612ebe612e29565b5b612ec88261299d565b9050602081019050919050565b82818337600083830152505050565b6000612ef7612ef284612ea4565b612e89565b905082815260208101848484011115612f1357612f12612e24565b5b612f1e848285612ed5565b509392505050565b600082601f830112612f3b57612f3a612bb1565b5b8135612f4b848260208601612ee4565b91505092915050565b60008060008060808587031215612f6e57612f6d612892565b5b6000612f7c87828801612adf565b9450506020612f8d87828801612adf565b9350506040612f9e87828801612a2a565b925050606085013567ffffffffffffffff811115612fbf57612fbe612897565b5b612fcb87828801612f26565b91505092959194509250565b60008060408385031215612fee57612fed612892565b5b6000612ffc85828601612adf565b925050602061300d85828601612adf565b9150509250929050565b7f4e487b7100000000000000000000000000000000000000000000000000000000600052602260045260246000fd5b6000600282049050600182168061305e57607f821691505b60208210810361307157613070613017565b5b50919050565b7f4552433732313a20617070726f76616c20746f2063757272656e74206f776e6560008201527f7200000000000000000000000000000000000000000000000000000000000000602082015250565b60006130d3602183612962565b91506130de82613077565b604082019050919050565b60006020820190508181036000830152613102816130c6565b9050919050565b7f4552433732313a20617070726f76652063616c6c6572206973206e6f7420746f60008201527f6b656e206f776e6572206f7220617070726f76656420666f7220616c6c000000602082015250565b6000613165603d83612962565b915061317082613109565b604082019050919050565b6000602082019050818103600083015261319481613158565b9050919050565b7f4552433732313a2063616c6c6572206973206e6f7420746f6b656e206f776e6560008201527f72206f7220617070726f76656400000000000000000000000000000000000000602082015250565b60006131f7602d83612962565b91506132028261319b565b604082019050919050565b60006020820190508181036000830152613226816131ea565b9050919050565b7f455243373231456e756d657261626c653a206f776e657220696e646578206f7560008201527f74206f6620626f756e6473000000000000000000000000000000000000000000602082015250565b6000613289602b83612962565b91506132948261322d565b604082019050919050565b600060208201905081810360008301526132b88161327c565b9050919050565b600082905092915050565b60008190508160005260206000209050919050565b60006020601f8301049050919050565b600082821b905092915050565b60006008830261332c7fffffffffffffffffffffffffffffffffffffffffffffffffffffffffffffffff826132ef565b61333686836132ef565b95508019841693508086168417925050509392505050565b6000819050919050565b600061337361336e61336984612a09565b61334e565b612a09565b9050919050565b6000819050919050565b61338d83613358565b6133a16133998261337a565b8484546132fc565b825550505050565b600090565b6133b66133a9565b6133c1818484613384565b505050565b5b818110156133e5576133da6000826133ae565b6001810190506133c7565b5050565b601f82111561342a576133fb816132ca565b613404846132df565b81016020851015613413578190505b61342761341f856132df565b8301826133c6565b50505b505050565b600082821c905092915050565b600061344d6000198460080261342f565b1980831691505092915050565b6000613466838361343c565b9150826002028217905092915050565b61348083836132bf565b67ffffffffffffffff81111561349957613498612e29565b5b6134a38254613046565b6134ae8282856133e9565b6000601f8311600181146134dd57600084156134cb578287013590505b6134d5858261345a565b86555061353d565b601f1984166134eb866132ca565b60005b82811015613513578489013582556001820191506020850194506020810190506134ee565b86831015613530578489013561352c601f89168261343c565b8355505b6001600288020188555050505b50505050505050565b7f455243373231456e756d657261626c653a20676c6f62616c20696e646578206f60008201527f7574206f6620626f756e64730000000000000000000000000000000000000000602082015250565b60006135a2602c83612962565b91506135ad82613546565b604082019050919050565b600060208201905081810360008301526135d181613595565b9050919050565b7f4e487b7100000000000000000000000000000000000000000000000000000000600052603260045260246000fd5b7f4e487b7100000000000000000000000000000000000000000000000000000000600052601160045260246000fd5b600061364182612a09565b91507fffffffffffffffffffffffffffffffffffffffffffffffffffffffffffffffff820361367357613672613607565b5b600182019050919050565b7f4552433732313a20696e76616c696420746f6b656e2049440000000000000000600082015250565b60006136b4601883612962565b91506136bf8261367e565b602082019050919050565b600060208201905081810360008301526136e3816136a7565b9050919050565b7f4552433732313a2061646472657373207a65726f206973206e6f74206120766160008201527f6c6964206f776e65720000000000000000000000000000000000000000000000602082015250565b6000613746602983612962565b9150613751826136ea565b604082019050919050565b6000602082019050818103600083015261377581613739565b9050919050565b7f4f776e61626c653a206e6577206f776e657220697320746865207a65726f206160008201527f6464726573730000000000000000000000000000000000000000000000000000602082015250565b60006137d8602683612962565b91506137e38261377c565b604082019050919050565b60006020820190508181036000830152613807816137cb565b9050919050565b7f4552433732313a207472616e736665722066726f6d20696e636f72726563742060008201527f6f776e6572000000000000000000000000000000000000000000000000000000602082015250565b600061386a602583612962565b91506138758261380e565b604082019050919050565b600060208201905081810360008301526138998161385d565b9050919050565b7f4552433732313a207472616e7366657220746f20746865207a65726f2061646460008201527f7265737300000000000000000000000000000000000000000000000000000000602082015250565b60006138fc602483612962565b9150613907826138a0565b604082019050919050565b6000602082019050818103600083015261392b816138ef565b9050919050565b7f4f776e61626c653a2063616c6c6572206973206e6f7420746865206f776e6572600082015250565b6000613968602083612962565b915061397382613932565b602082019050919050565b600060208201905081810360008301526139978161395b565b9050919050565b7f4552433732313a20617070726f766520746f2063616c6c657200000000000000600082015250565b60006139d4601983612962565b91506139df8261399e565b602082019050919050565b60006020820190508181036000830152613a03816139c7565b9050919050565b7f4552433732313a207472616e7366657220746f206e6f6e20455243373231526560008201527f63656976657220696d706c656d656e7465720000000000000000000000000000602082015250565b6000613a66603283612962565b9150613a7182613a0a565b604082019050919050565b60006020820190508181036000830152613a9581613a59565b9050919050565b600081905092915050565b6000613ab282612957565b613abc8185613a9c565b9350613acc818560208601612973565b80840191505092915050565b6000613ae48285613aa7565b9150613af08284613aa7565b91508190509392505050565b600081519050919050565b600082825260208201905092915050565b6000613b2382613afc565b613b2d8185613b07565b9350613b3d818560208601612973565b613b468161299d565b840191505092915050565b6000608082019050613b666000830187612a9e565b613b736020830186612a9e565b613b806040830185612b34565b8181036060830152613b928184613b18565b905095945050505050565b600081519050613bac816128c8565b92915050565b600060208284031215613bc857613bc7612892565b5b6000613bd684828501613b9d565b91505092915050565b7f455243373231456e756d657261626c653a20636f6e736563757469766520747260008201527f616e7366657273206e6f7420737570706f727465640000000000000000000000602082015250565b6000613c3b603583612962565b9150613c4682613bdf565b604082019050919050565b60006020820190508181036000830152613c6a81613c2e565b9050919050565b7f4552433732313a206d696e7420746f20746865207a65726f2061646472657373600082015250565b6000613ca7602083612962565b9150613cb282613c71565b602082019050919050565b60006020820190508181036000830152613cd681613c9a565b9050919050565b7f4552433732313a20746f6b656e20616c7265616479206d696e74656400000000600082015250565b6000613d13601c83612962565b9150613d1e82613cdd565b602082019050919050565b60006020820190508181036000830152613d4281613d06565b9050919050565b7f4e487b7100000000000000000000000000000000000000000000000000000000600052601260045260246000fd5b6000613d8382612a09565b9150613d8e83612a09565b9250828203905081811115613da657613da5613607565b5b92915050565b6000613db782612a09565b9150613dc283612a09565b9250828201905080821115613dda57613dd9613607565b5b92915050565b7f4e487b7100000000000000000000000000000000000000000000000000000000600052603160045260246000fdfea2646970667358221220f3e6cdccbd8fd0a19dc85e65b318b409e8ab480e8f9281627afdd7f7aec80f9e64736f6c63430008110033",
  "immutableReferences": {},
  "source": "// SPDX-License-Identifier: MIT\n// // from \"https://github.com/OpenZeppelin/openzeppelin-contracts/blob/master/contracts/token/ERC721/ERC721.sol\";\n// import \"./ERC721.sol\";\n// // from \"https://github.com/OpenZeppelin/openzeppelin-contracts/blob/master/contracts/access/Ownable.sol\";\n// import \"./Ownable.sol\";\npragma solidity ^0.8.9;\nimport \"@openzeppelin/contracts/token/ERC721/ERC721.sol\";\nimport \"@openzeppelin/contracts/token/ERC721/extensions/ERC721Enumerable.sol\";\nimport \"@openzeppelin/contracts/token/ERC721/extensions/ERC721URIStorage.sol\";\nimport \"@openzeppelin/contracts/access/Ownable.sol\";\nimport \"@openzeppelin/contracts/utils/Counters.sol\";\nimport \"./I_MedicalCertificate.sol\";\ncontract MedicalCertificate is ERC721, ERC721Enumerable, ERC721URIStorage, Ownable, I_MedicalCertificate{\n    using Counters for Counters.Counter;\n    Counters.Counter private _idCounter;\n    mapping (uint256 => string) private symptomsStorage;\n    mapping (uint256 => string) private levelsStorage;\n \n    constructor() ERC721(\"MedicalCertificate\", \"MC\") {}\n    function addCertificate(string calldata symptoms, string calldata levels, address patient) external onlyOwner{\n        uint256 id = _idCounter.current();\n        _idCounter.increment();\n        _safeMint(patient, id);\n        symptomsStorage[id] = symptoms;\n        levelsStorage[id] = levels;\n    }\n    function getSymptoms(uint256 id) external view returns(string memory symptoms){\n        return symptomsStorage[id];\n    }\n    function getLevels(uint256 id) external view returns(string memory levels){\n        return levelsStorage[id];\n    }\n    function listCertificatesIdOfAddress(address _address) external view returns(uint256[] memory certificateIds){\n        uint256 numberOfCertificates = balanceOf(_address);\n        uint256[] memory ret = new uint256[](numberOfCertificates);\n        for(uint256 i=0; i<numberOfCertificates; i++){\n            ret[i] = tokenOfOwnerByIndex(_address, i);\n        }\n        return ret;\n    }\n    function cleanAllCertificate(address patient) external onlyOwner{\n        uint256 numberOfCertificates = balanceOf(patient);\n        for(uint256 i=0; i<numberOfCertificates; i++){\n            _burn(tokenOfOwnerByIndex(patient, 0));\n        }\n    }\n\n\n    function _beforeTokenTransfer(address from, address to, uint256 firstTokenId, uint256 batchSize) internal override(ERC721, ERC721Enumerable) {ERC721Enumerable._beforeTokenTransfer(from, to, firstTokenId, batchSize);}\n    function _burn(uint256 tokenId) internal override(ERC721, ERC721URIStorage){ERC721URIStorage._burn(tokenId);}\n    function supportsInterface(bytes4 interfaceId) public view override(ERC721, ERC721Enumerable) returns (bool){return ERC721Enumerable.supportsInterface(interfaceId);}\n    function tokenURI(uint256 tokenId) public view override(ERC721, ERC721URIStorage) returns (string memory){return ERC721URIStorage.tokenURI(tokenId);}\n    \n}",
  "sourcePath": "/home/danielchang/SoftwareEngineer/medical-certificate-smart-contract/contracts/MedicalCertificate_ERC721.sol",
  "compiler": {
    "name": "solc",
    "version": "0.8.17+commit.8df45f5f.Emscripten.clang"
  },
  "schemaVersion": "3.4.11",
  "updatedAt": "2022-12-10T06:56:10.788Z",
  "devdoc": {
    "kind": "dev",
    "methods": {
      "approve(address,uint256)": {
        "details": "See {IERC721-approve}."
      },
      "balanceOf(address)": {
        "details": "See {IERC721-balanceOf}."
      },
      "getApproved(uint256)": {
        "details": "See {IERC721-getApproved}."
      },
      "isApprovedForAll(address,address)": {
        "details": "See {IERC721-isApprovedForAll}."
      },
      "name()": {
        "details": "See {IERC721Metadata-name}."
      },
      "owner()": {
        "details": "Returns the address of the current owner."
      },
      "ownerOf(uint256)": {
        "details": "See {IERC721-ownerOf}."
      },
      "renounceOwnership()": {
        "details": "Leaves the contract without owner. It will not be possible to call `onlyOwner` functions anymore. Can only be called by the current owner. NOTE: Renouncing ownership will leave the contract without an owner, thereby removing any functionality that is only available to the owner."
      },
      "safeTransferFrom(address,address,uint256)": {
        "details": "See {IERC721-safeTransferFrom}."
      },
      "safeTransferFrom(address,address,uint256,bytes)": {
        "details": "See {IERC721-safeTransferFrom}."
      },
      "setApprovalForAll(address,bool)": {
        "details": "See {IERC721-setApprovalForAll}."
      },
      "symbol()": {
        "details": "See {IERC721Metadata-symbol}."
      },
      "tokenByIndex(uint256)": {
        "details": "See {IERC721Enumerable-tokenByIndex}."
      },
      "tokenOfOwnerByIndex(address,uint256)": {
        "details": "See {IERC721Enumerable-tokenOfOwnerByIndex}."
      },
      "totalSupply()": {
        "details": "See {IERC721Enumerable-totalSupply}."
      },
      "transferFrom(address,address,uint256)": {
        "details": "See {IERC721-transferFrom}."
      },
      "transferOwnership(address)": {
        "details": "Transfers ownership of the contract to a new account (`newOwner`). Can only be called by the current owner."
      }
    },
    "version": 1
  },
  "userdoc": {
    "kind": "user",
    "methods": {},
    "version": 1
  }
}