{
  "contractName": "MedicalCertificate",
  "abi": [
    {
      "inputs": [],
      "stateMutability": "nonpayable",
      "type": "constructor"
    },
    {
      "anonymous": false,
      "inputs": [
        {
          "indexed": true,
          "internalType": "address",
          "name": "owner",
          "type": "address"
        },
        {
          "indexed": true,
          "internalType": "address",
          "name": "approved",
          "type": "address"
        },
        {
          "indexed": true,
          "internalType": "uint256",
          "name": "tokenId",
          "type": "uint256"
        }
      ],
      "name": "Approval",
      "type": "event"
    },
    {
      "anonymous": false,
      "inputs": [
        {
          "indexed": true,
          "internalType": "address",
          "name": "owner",
          "type": "address"
        },
        {
          "indexed": true,
          "internalType": "address",
          "name": "operator",
          "type": "address"
        },
        {
          "indexed": false,
          "internalType": "bool",
          "name": "approved",
          "type": "bool"
        }
      ],
      "name": "ApprovalForAll",
      "type": "event"
    },
    {
      "anonymous": false,
      "inputs": [
        {
          "indexed": true,
          "internalType": "address",
          "name": "previousOwner",
          "type": "address"
        },
        {
          "indexed": true,
          "internalType": "address",
          "name": "newOwner",
          "type": "address"
        }
      ],
      "name": "OwnershipTransferred",
      "type": "event"
    },
    {
      "anonymous": false,
      "inputs": [
        {
          "indexed": true,
          "internalType": "address",
          "name": "from",
          "type": "address"
        },
        {
          "indexed": true,
          "internalType": "address",
          "name": "to",
          "type": "address"
        },
        {
          "indexed": true,
          "internalType": "uint256",
          "name": "tokenId",
          "type": "uint256"
        }
      ],
      "name": "Transfer",
      "type": "event"
    },
    {
      "inputs": [
        {
          "internalType": "address",
          "name": "to",
          "type": "address"
        },
        {
          "internalType": "uint256",
          "name": "tokenId",
          "type": "uint256"
        }
      ],
      "name": "approve",
      "outputs": [],
      "stateMutability": "nonpayable",
      "type": "function"
    },
    {
      "inputs": [
        {
          "internalType": "address",
          "name": "owner",
          "type": "address"
        }
      ],
      "name": "balanceOf",
      "outputs": [
        {
          "internalType": "uint256",
          "name": "",
          "type": "uint256"
        }
      ],
      "stateMutability": "view",
      "type": "function"
    },
    {
      "inputs": [
        {
          "internalType": "uint256",
          "name": "tokenId",
          "type": "uint256"
        }
      ],
      "name": "getApproved",
      "outputs": [
        {
          "internalType": "address",
          "name": "",
          "type": "address"
        }
      ],
      "stateMutability": "view",
      "type": "function"
    },
    {
      "inputs": [
        {
          "internalType": "address",
          "name": "owner",
          "type": "address"
        },
        {
          "internalType": "address",
          "name": "operator",
          "type": "address"
        }
      ],
      "name": "isApprovedForAll",
      "outputs": [
        {
          "internalType": "bool",
          "name": "",
          "type": "bool"
        }
      ],
      "stateMutability": "view",
      "type": "function"
    },
    {
      "inputs": [],
      "name": "name",
      "outputs": [
        {
          "internalType": "string",
          "name": "",
          "type": "string"
        }
      ],
      "stateMutability": "view",
      "type": "function"
    },
    {
      "inputs": [],
      "name": "owner",
      "outputs": [
        {
          "internalType": "address",
          "name": "",
          "type": "address"
        }
      ],
      "stateMutability": "view",
      "type": "function"
    },
    {
      "inputs": [
        {
          "internalType": "uint256",
          "name": "tokenId",
          "type": "uint256"
        }
      ],
      "name": "ownerOf",
      "outputs": [
        {
          "internalType": "address",
          "name": "",
          "type": "address"
        }
      ],
      "stateMutability": "view",
      "type": "function"
    },
    {
      "inputs": [],
      "name": "renounceOwnership",
      "outputs": [],
      "stateMutability": "nonpayable",
      "type": "function"
    },
    {
      "inputs": [
        {
          "internalType": "address",
          "name": "from",
          "type": "address"
        },
        {
          "internalType": "address",
          "name": "to",
          "type": "address"
        },
        {
          "internalType": "uint256",
          "name": "tokenId",
          "type": "uint256"
        }
      ],
      "name": "safeTransferFrom",
      "outputs": [],
      "stateMutability": "nonpayable",
      "type": "function"
    },
    {
      "inputs": [
        {
          "internalType": "address",
          "name": "from",
          "type": "address"
        },
        {
          "internalType": "address",
          "name": "to",
          "type": "address"
        },
        {
          "internalType": "uint256",
          "name": "tokenId",
          "type": "uint256"
        },
        {
          "internalType": "bytes",
          "name": "data",
          "type": "bytes"
        }
      ],
      "name": "safeTransferFrom",
      "outputs": [],
      "stateMutability": "nonpayable",
      "type": "function"
    },
    {
      "inputs": [
        {
          "internalType": "address",
          "name": "operator",
          "type": "address"
        },
        {
          "internalType": "bool",
          "name": "approved",
          "type": "bool"
        }
      ],
      "name": "setApprovalForAll",
      "outputs": [],
      "stateMutability": "nonpayable",
      "type": "function"
    },
    {
      "inputs": [],
      "name": "symbol",
      "outputs": [
        {
          "internalType": "string",
          "name": "",
          "type": "string"
        }
      ],
      "stateMutability": "view",
      "type": "function"
    },
    {
      "inputs": [
        {
          "internalType": "uint256",
          "name": "index",
          "type": "uint256"
        }
      ],
      "name": "tokenByIndex",
      "outputs": [
        {
          "internalType": "uint256",
          "name": "",
          "type": "uint256"
        }
      ],
      "stateMutability": "view",
      "type": "function"
    },
    {
      "inputs": [
        {
          "internalType": "address",
          "name": "owner",
          "type": "address"
        },
        {
          "internalType": "uint256",
          "name": "index",
          "type": "uint256"
        }
      ],
      "name": "tokenOfOwnerByIndex",
      "outputs": [
        {
          "internalType": "uint256",
          "name": "",
          "type": "uint256"
        }
      ],
      "stateMutability": "view",
      "type": "function"
    },
    {
      "inputs": [],
      "name": "totalSupply",
      "outputs": [
        {
          "internalType": "uint256",
          "name": "",
          "type": "uint256"
        }
      ],
      "stateMutability": "view",
      "type": "function"
    },
    {
      "inputs": [
        {
          "internalType": "address",
          "name": "from",
          "type": "address"
        },
        {
          "internalType": "address",
          "name": "to",
          "type": "address"
        },
        {
          "internalType": "uint256",
          "name": "tokenId",
          "type": "uint256"
        }
      ],
      "name": "transferFrom",
      "outputs": [],
      "stateMutability": "nonpayable",
      "type": "function"
    },
    {
      "inputs": [
        {
          "internalType": "address",
          "name": "newOwner",
          "type": "address"
        }
      ],
      "name": "transferOwnership",
      "outputs": [],
      "stateMutability": "nonpayable",
      "type": "function"
    },
    {
      "inputs": [
        {
          "internalType": "string",
          "name": "certificate",
          "type": "string"
        },
        {
          "internalType": "address",
          "name": "patient",
          "type": "address"
        }
      ],
      "name": "addCertificate",
      "outputs": [],
      "stateMutability": "nonpayable",
      "type": "function"
    },
    {
      "inputs": [
        {
          "internalType": "uint256",
          "name": "id",
          "type": "uint256"
        }
      ],
      "name": "getCertificate",
      "outputs": [
        {
          "internalType": "string",
          "name": "certificate",
          "type": "string"
        }
      ],
      "stateMutability": "view",
      "type": "function"
    },
    {
      "inputs": [
        {
          "internalType": "address",
          "name": "_address",
          "type": "address"
        }
      ],
      "name": "listCertificatesIdOfAddress",
      "outputs": [
        {
          "internalType": "uint256[]",
          "name": "certificateIds",
          "type": "uint256[]"
        }
      ],
      "stateMutability": "view",
      "type": "function"
    },
    {
      "inputs": [
        {
          "internalType": "bytes4",
          "name": "interfaceId",
          "type": "bytes4"
        }
      ],
      "name": "supportsInterface",
      "outputs": [
        {
          "internalType": "bool",
          "name": "",
          "type": "bool"
        }
      ],
      "stateMutability": "view",
      "type": "function"
    },
    {
      "inputs": [
        {
          "internalType": "uint256",
          "name": "tokenId",
          "type": "uint256"
        }
      ],
      "name": "tokenURI",
      "outputs": [
        {
          "internalType": "string",
          "name": "",
          "type": "string"
        }
      ],
      "stateMutability": "view",
      "type": "function"
    }
  ],
  "bytecode": "0x60806040523480156200001157600080fd5b506040518060400160405280601281526020017f4d65646963616c436572746966696361746500000000000000000000000000008152506040518060400160405280600281526020017f4d4300000000000000000000000000000000000000000000000000000000000081525081600090816200008f919062000412565b508060019081620000a1919062000412565b505050620000c4620000b8620000ca60201b60201c565b620000d260201b60201c565b620004f9565b600033905090565b6000600b60009054906101000a900473ffffffffffffffffffffffffffffffffffffffff16905081600b60006101000a81548173ffffffffffffffffffffffffffffffffffffffff021916908373ffffffffffffffffffffffffffffffffffffffff1602179055508173ffffffffffffffffffffffffffffffffffffffff168173ffffffffffffffffffffffffffffffffffffffff167f8be0079c531659141344cd1fd0a4f28419497f9722a3daafe3b4186f6b6457e060405160405180910390a35050565b600081519050919050565b7f4e487b7100000000000000000000000000000000000000000000000000000000600052604160045260246000fd5b7f4e487b7100000000000000000000000000000000000000000000000000000000600052602260045260246000fd5b600060028204905060018216806200021a57607f821691505b60208210810362000230576200022f620001d2565b5b50919050565b60008190508160005260206000209050919050565b60006020601f8301049050919050565b600082821b905092915050565b6000600883026200029a7fffffffffffffffffffffffffffffffffffffffffffffffffffffffffffffffff826200025b565b620002a686836200025b565b95508019841693508086168417925050509392505050565b6000819050919050565b6000819050919050565b6000620002f3620002ed620002e784620002be565b620002c8565b620002be565b9050919050565b6000819050919050565b6200030f83620002d2565b620003276200031e82620002fa565b84845462000268565b825550505050565b600090565b6200033e6200032f565b6200034b81848462000304565b505050565b5b8181101562000373576200036760008262000334565b60018101905062000351565b5050565b601f821115620003c2576200038c8162000236565b62000397846200024b565b81016020851015620003a7578190505b620003bf620003b6856200024b565b83018262000350565b50505b505050565b600082821c905092915050565b6000620003e760001984600802620003c7565b1980831691505092915050565b6000620004028383620003d4565b9150826002028217905092915050565b6200041d8262000198565b67ffffffffffffffff811115620004395762000438620001a3565b5b62000445825462000201565b6200045282828562000377565b600060209050601f8311600181146200048a576000841562000475578287015190505b620004818582620003f4565b865550620004f1565b601f1984166200049a8662000236565b60005b82811015620004c4578489015182556001820191506020850194506020810190506200049d565b86831015620004e45784890151620004e0601f891682620003d4565b8355505b6001600288020188555050505b505050505050565b613b0d80620005096000396000f3fe608060405234801561001057600080fd5b50600436106101425760003560e01c80635e19e975116100b857806395d89b411161007c57806395d89b411461039b578063a22cb465146103b9578063b88d4fde146103d5578063c87b56dd146103f1578063e985e9c514610421578063f2fde38b1461045157610142565b80635e19e975146102e35780636352211e1461031357806370a0823114610343578063715018a6146103735780638da5cb5b1461037d57610142565b806318160ddd1161010a57806318160ddd146101fd57806323b872dd1461021b5780632f745c591461023757806342842e0e146102675780634f6ccce71461028357806351640fee146102b357610142565b806301ffc9a71461014757806306fdde0314610177578063081812fc14610195578063095ea7b3146101c55780630fe8c788146101e1575b600080fd5b610161600480360381019061015c919061252b565b61046d565b60405161016e9190612573565b60405180910390f35b61017f61047f565b60405161018c919061261e565b60405180910390f35b6101af60048036038101906101aa9190612676565b610511565b6040516101bc91906126e4565b60405180910390f35b6101df60048036038101906101da919061272b565b610557565b005b6101fb60048036038101906101f691906128a0565b61066e565b005b61020561069f565b604051610212919061290b565b60405180910390f35b61023560048036038101906102309190612926565b6106ac565b005b610251600480360381019061024c919061272b565b61070c565b60405161025e919061290b565b60405180910390f35b610281600480360381019061027c9190612926565b6107b1565b005b61029d60048036038101906102989190612676565b6107d1565b6040516102aa919061290b565b60405180910390f35b6102cd60048036038101906102c89190612676565b610842565b6040516102da919061261e565b60405180910390f35b6102fd60048036038101906102f89190612979565b610854565b60405161030a9190612a64565b60405180910390f35b61032d60048036038101906103289190612676565b610902565b60405161033a91906126e4565b60405180910390f35b61035d60048036038101906103589190612979565b610988565b60405161036a919061290b565b60405180910390f35b61037b610a3f565b005b610385610a53565b60405161039291906126e4565b60405180910390f35b6103a3610a7d565b6040516103b0919061261e565b60405180910390f35b6103d360048036038101906103ce9190612ab2565b610b0f565b005b6103ef60048036038101906103ea9190612b93565b610b25565b005b61040b60048036038101906104069190612676565b610b87565b604051610418919061261e565b60405180910390f35b61043b60048036038101906104369190612c16565b610b99565b6040516104489190612573565b60405180910390f35b61046b60048036038101906104669190612979565b610c2d565b005b600061047882610cb0565b9050919050565b60606000805461048e90612c85565b80601f01602080910402602001604051908101604052809291908181526020018280546104ba90612c85565b80156105075780601f106104dc57610100808354040283529160200191610507565b820191906000526020600020905b8154815290600101906020018083116104ea57829003601f168201915b5050505050905090565b600061051c82610d2a565b6004600083815260200190815260200160002060009054906101000a900473ffffffffffffffffffffffffffffffffffffffff169050919050565b600061056282610902565b90508073ffffffffffffffffffffffffffffffffffffffff168373ffffffffffffffffffffffffffffffffffffffff16036105d2576040517f08c379a00000000000000000000000000000000000000000000000000000000081526004016105c990612d28565b60405180910390fd5b8073ffffffffffffffffffffffffffffffffffffffff166105f1610d75565b73ffffffffffffffffffffffffffffffffffffffff161480610620575061061f8161061a610d75565b610b99565b5b61065f576040517f08c379a000000000000000000000000000000000000000000000000000000000815260040161065690612dba565b60405180910390fd5b6106698383610d7d565b505050565b600061067a600c610e36565b9050610686600c610e44565b6106908282610e5a565b61069a8184610e78565b505050565b6000600880549050905090565b6106bd6106b7610d75565b82610ee5565b6106fc576040517f08c379a00000000000000000000000000000000000000000000000000000000081526004016106f390612e4c565b60405180910390fd5b610707838383610f7a565b505050565b600061071783610988565b8210610758576040517f08c379a000000000000000000000000000000000000000000000000000000000815260040161074f90612ede565b60405180910390fd5b600660008473ffffffffffffffffffffffffffffffffffffffff1673ffffffffffffffffffffffffffffffffffffffff168152602001908152602001600020600083815260200190815260200160002054905092915050565b6107cc83838360405180602001604052806000815250610b25565b505050565b60006107db61069f565b821061081c576040517f08c379a000000000000000000000000000000000000000000000000000000000815260040161081390612f70565b60405180910390fd5b600882815481106108305761082f612f90565b5b90600052602060002001549050919050565b606061084d82610b87565b9050919050565b6060600061086183610988565b905060008167ffffffffffffffff81111561087f5761087e612775565b5b6040519080825280602002602001820160405280156108ad5781602001602082028036833780820191505090505b50905060005b828110156108f7576108c5858261070c565b8282815181106108d8576108d7612f90565b5b60200260200101818152505080806108ef90612fee565b9150506108b3565b508092505050919050565b60008061090e83611273565b9050600073ffffffffffffffffffffffffffffffffffffffff168173ffffffffffffffffffffffffffffffffffffffff160361097f576040517f08c379a000000000000000000000000000000000000000000000000000000000815260040161097690613082565b60405180910390fd5b80915050919050565b60008073ffffffffffffffffffffffffffffffffffffffff168273ffffffffffffffffffffffffffffffffffffffff16036109f8576040517f08c379a00000000000000000000000000000000000000000000000000000000081526004016109ef90613114565b60405180910390fd5b600360008373ffffffffffffffffffffffffffffffffffffffff1673ffffffffffffffffffffffffffffffffffffffff168152602001908152602001600020549050919050565b610a476112b0565b610a51600061132e565b565b6000600b60009054906101000a900473ffffffffffffffffffffffffffffffffffffffff16905090565b606060018054610a8c90612c85565b80601f0160208091040260200160405190810160405280929190818152602001828054610ab890612c85565b8015610b055780601f10610ada57610100808354040283529160200191610b05565b820191906000526020600020905b815481529060010190602001808311610ae857829003601f168201915b5050505050905090565b610b21610b1a610d75565b83836113f4565b5050565b610b36610b30610d75565b83610ee5565b610b75576040517f08c379a0000000000000000000000000000000000000000000000000000000008152600401610b6c90612e4c565b60405180910390fd5b610b8184848484611560565b50505050565b6060610b92826115bc565b9050919050565b6000600560008473ffffffffffffffffffffffffffffffffffffffff1673ffffffffffffffffffffffffffffffffffffffff16815260200190815260200160002060008373ffffffffffffffffffffffffffffffffffffffff1673ffffffffffffffffffffffffffffffffffffffff16815260200190815260200160002060009054906101000a900460ff16905092915050565b610c356112b0565b600073ffffffffffffffffffffffffffffffffffffffff168173ffffffffffffffffffffffffffffffffffffffff1603610ca4576040517f08c379a0000000000000000000000000000000000000000000000000000000008152600401610c9b906131a6565b60405180910390fd5b610cad8161132e565b50565b60007f780e9d63000000000000000000000000000000000000000000000000000000007bffffffffffffffffffffffffffffffffffffffffffffffffffffffff1916827bffffffffffffffffffffffffffffffffffffffffffffffffffffffff19161480610d235750610d22826116ce565b5b9050919050565b610d33816117b0565b610d72576040517f08c379a0000000000000000000000000000000000000000000000000000000008152600401610d6990613082565b60405180910390fd5b50565b600033905090565b816004600083815260200190815260200160002060006101000a81548173ffffffffffffffffffffffffffffffffffffffff021916908373ffffffffffffffffffffffffffffffffffffffff160217905550808273ffffffffffffffffffffffffffffffffffffffff16610df083610902565b73ffffffffffffffffffffffffffffffffffffffff167f8c5be1e5ebec7d5bd14f71427d1e84f3dd0314c0f7b2291e5b200ac8c7c3b92560405160405180910390a45050565b600081600001549050919050565b6001816000016000828254019250508190555050565b610e748282604051806020016040528060008152506117f1565b5050565b610e81826117b0565b610ec0576040517f08c379a0000000000000000000000000000000000000000000000000000000008152600401610eb790613238565b60405180910390fd5b80600a60008481526020019081526020016000209081610ee09190613404565b505050565b600080610ef183610902565b90508073ffffffffffffffffffffffffffffffffffffffff168473ffffffffffffffffffffffffffffffffffffffff161480610f335750610f328185610b99565b5b80610f7157508373ffffffffffffffffffffffffffffffffffffffff16610f5984610511565b73ffffffffffffffffffffffffffffffffffffffff16145b91505092915050565b8273ffffffffffffffffffffffffffffffffffffffff16610f9a82610902565b73ffffffffffffffffffffffffffffffffffffffff1614610ff0576040517f08c379a0000000000000000000000000000000000000000000000000000000008152600401610fe790613548565b60405180910390fd5b600073ffffffffffffffffffffffffffffffffffffffff168273ffffffffffffffffffffffffffffffffffffffff160361105f576040517f08c379a0000000000000000000000000000000000000000000000000000000008152600401611056906135da565b60405180910390fd5b61106c838383600161184c565b8273ffffffffffffffffffffffffffffffffffffffff1661108c82610902565b73ffffffffffffffffffffffffffffffffffffffff16146110e2576040517f08c379a00000000000000000000000000000000000000000000000000000000081526004016110d990613548565b60405180910390fd5b6004600082815260200190815260200160002060006101000a81549073ffffffffffffffffffffffffffffffffffffffff02191690556001600360008573ffffffffffffffffffffffffffffffffffffffff1673ffffffffffffffffffffffffffffffffffffffff168152602001908152602001600020600082825403925050819055506001600360008473ffffffffffffffffffffffffffffffffffffffff1673ffffffffffffffffffffffffffffffffffffffff16815260200190815260200160002060008282540192505081905550816002600083815260200190815260200160002060006101000a81548173ffffffffffffffffffffffffffffffffffffffff021916908373ffffffffffffffffffffffffffffffffffffffff160217905550808273ffffffffffffffffffffffffffffffffffffffff168473ffffffffffffffffffffffffffffffffffffffff167fddf252ad1be2c89b69c2b068fc378daa952ba7f163c4a11628f55a4df523b3ef60405160405180910390a461126e838383600161185e565b505050565b60006002600083815260200190815260200160002060009054906101000a900473ffffffffffffffffffffffffffffffffffffffff169050919050565b6112b8610d75565b73ffffffffffffffffffffffffffffffffffffffff166112d6610a53565b73ffffffffffffffffffffffffffffffffffffffff161461132c576040517f08c379a000000000000000000000000000000000000000000000000000000000815260040161132390613646565b60405180910390fd5b565b6000600b60009054906101000a900473ffffffffffffffffffffffffffffffffffffffff16905081600b60006101000a81548173ffffffffffffffffffffffffffffffffffffffff021916908373ffffffffffffffffffffffffffffffffffffffff1602179055508173ffffffffffffffffffffffffffffffffffffffff168173ffffffffffffffffffffffffffffffffffffffff167f8be0079c531659141344cd1fd0a4f28419497f9722a3daafe3b4186f6b6457e060405160405180910390a35050565b8173ffffffffffffffffffffffffffffffffffffffff168373ffffffffffffffffffffffffffffffffffffffff1603611462576040517f08c379a0000000000000000000000000000000000000000000000000000000008152600401611459906136b2565b60405180910390fd5b80600560008573ffffffffffffffffffffffffffffffffffffffff1673ffffffffffffffffffffffffffffffffffffffff16815260200190815260200160002060008473ffffffffffffffffffffffffffffffffffffffff1673ffffffffffffffffffffffffffffffffffffffff16815260200190815260200160002060006101000a81548160ff0219169083151502179055508173ffffffffffffffffffffffffffffffffffffffff168373ffffffffffffffffffffffffffffffffffffffff167f17307eab39ab6107e8899845ad3d59bd9653f200f220920489ca2b5937696c31836040516115539190612573565b60405180910390a3505050565b61156b848484610f7a565b61157784848484611864565b6115b6576040517f08c379a00000000000000000000000000000000000000000000000000000000081526004016115ad90613744565b60405180910390fd5b50505050565b60606115c782610d2a565b6000600a600084815260200190815260200160002080546115e790612c85565b80601f016020809104026020016040519081016040528092919081815260200182805461161390612c85565b80156116605780601f1061163557610100808354040283529160200191611660565b820191906000526020600020905b81548152906001019060200180831161164357829003601f168201915b5050505050905060006116716119eb565b905060008151036116865781925050506116c9565b6000825111156116bb5780826040516020016116a39291906137a0565b604051602081830303815290604052925050506116c9565b6116c484611a02565b925050505b919050565b60007f80ac58cd000000000000000000000000000000000000000000000000000000007bffffffffffffffffffffffffffffffffffffffffffffffffffffffff1916827bffffffffffffffffffffffffffffffffffffffffffffffffffffffff1916148061179957507f5b5e139f000000000000000000000000000000000000000000000000000000007bffffffffffffffffffffffffffffffffffffffffffffffffffffffff1916827bffffffffffffffffffffffffffffffffffffffffffffffffffffffff1916145b806117a957506117a882611a6a565b5b9050919050565b60008073ffffffffffffffffffffffffffffffffffffffff166117d283611273565b73ffffffffffffffffffffffffffffffffffffffff1614159050919050565b6117fb8383611ad4565b6118086000848484611864565b611847576040517f08c379a000000000000000000000000000000000000000000000000000000000815260040161183e90613744565b60405180910390fd5b505050565b61185884848484611cf1565b50505050565b50505050565b60006118858473ffffffffffffffffffffffffffffffffffffffff16611e4f565b156119de578373ffffffffffffffffffffffffffffffffffffffff1663150b7a026118ae610d75565b8786866040518563ffffffff1660e01b81526004016118d09493929190613819565b6020604051808303816000875af192505050801561190c57506040513d601f19601f82011682018060405250810190611909919061387a565b60015b61198e573d806000811461193c576040519150601f19603f3d011682016040523d82523d6000602084013e611941565b606091505b506000815103611986576040517f08c379a000000000000000000000000000000000000000000000000000000000815260040161197d90613744565b60405180910390fd5b805181602001fd5b63150b7a0260e01b7bffffffffffffffffffffffffffffffffffffffffffffffffffffffff1916817bffffffffffffffffffffffffffffffffffffffffffffffffffffffff1916149150506119e3565b600190505b949350505050565b606060405180602001604052806000815250905090565b6060611a0d82610d2a565b6000611a176119eb565b90506000815111611a375760405180602001604052806000815250611a62565b80611a4184611e72565b604051602001611a529291906137a0565b6040516020818303038152906040525b915050919050565b60007f01ffc9a7000000000000000000000000000000000000000000000000000000007bffffffffffffffffffffffffffffffffffffffffffffffffffffffff1916827bffffffffffffffffffffffffffffffffffffffffffffffffffffffff1916149050919050565b600073ffffffffffffffffffffffffffffffffffffffff168273ffffffffffffffffffffffffffffffffffffffff1603611b43576040517f08c379a0000000000000000000000000000000000000000000000000000000008152600401611b3a906138f3565b60405180910390fd5b611b4c816117b0565b15611b8c576040517f08c379a0000000000000000000000000000000000000000000000000000000008152600401611b839061395f565b60405180910390fd5b611b9a60008383600161184c565b611ba3816117b0565b15611be3576040517f08c379a0000000000000000000000000000000000000000000000000000000008152600401611bda9061395f565b60405180910390fd5b6001600360008473ffffffffffffffffffffffffffffffffffffffff1673ffffffffffffffffffffffffffffffffffffffff16815260200190815260200160002060008282540192505081905550816002600083815260200190815260200160002060006101000a81548173ffffffffffffffffffffffffffffffffffffffff021916908373ffffffffffffffffffffffffffffffffffffffff160217905550808273ffffffffffffffffffffffffffffffffffffffff16600073ffffffffffffffffffffffffffffffffffffffff167fddf252ad1be2c89b69c2b068fc378daa952ba7f163c4a11628f55a4df523b3ef60405160405180910390a4611ced60008383600161185e565b5050565b611cfd84848484611f40565b6001811115611d41576040517f08c379a0000000000000000000000000000000000000000000000000000000008152600401611d38906139f1565b60405180910390fd5b6000829050600073ffffffffffffffffffffffffffffffffffffffff168573ffffffffffffffffffffffffffffffffffffffff1603611d8857611d8381612066565b611dc7565b8373ffffffffffffffffffffffffffffffffffffffff168573ffffffffffffffffffffffffffffffffffffffff1614611dc657611dc585826120af565b5b5b600073ffffffffffffffffffffffffffffffffffffffff168473ffffffffffffffffffffffffffffffffffffffff1603611e0957611e048161221c565b611e48565b8473ffffffffffffffffffffffffffffffffffffffff168473ffffffffffffffffffffffffffffffffffffffff1614611e4757611e4684826122ed565b5b5b5050505050565b6000808273ffffffffffffffffffffffffffffffffffffffff163b119050919050565b606060006001611e818461236c565b01905060008167ffffffffffffffff811115611ea057611e9f612775565b5b6040519080825280601f01601f191660200182016040528015611ed25781602001600182028036833780820191505090505b509050600082602001820190505b600115611f35578080600190039150507f3031323334353637383961626364656600000000000000000000000000000000600a86061a8153600a8581611f2957611f28613a11565b5b04945060008503611ee0575b819350505050919050565b600181111561206057600073ffffffffffffffffffffffffffffffffffffffff168473ffffffffffffffffffffffffffffffffffffffff1614611fd45780600360008673ffffffffffffffffffffffffffffffffffffffff1673ffffffffffffffffffffffffffffffffffffffff1681526020019081526020016000206000828254611fcc9190613a40565b925050819055505b600073ffffffffffffffffffffffffffffffffffffffff168373ffffffffffffffffffffffffffffffffffffffff161461205f5780600360008573ffffffffffffffffffffffffffffffffffffffff1673ffffffffffffffffffffffffffffffffffffffff16815260200190815260200160002060008282546120579190613a74565b925050819055505b5b50505050565b6008805490506009600083815260200190815260200160002081905550600881908060018154018082558091505060019003906000526020600020016000909190919091505550565b600060016120bc84610988565b6120c69190613a40565b90506000600760008481526020019081526020016000205490508181146121ab576000600660008673ffffffffffffffffffffffffffffffffffffffff1673ffffffffffffffffffffffffffffffffffffffff168152602001908152602001600020600084815260200190815260200160002054905080600660008773ffffffffffffffffffffffffffffffffffffffff1673ffffffffffffffffffffffffffffffffffffffff168152602001908152602001600020600084815260200190815260200160002081905550816007600083815260200190815260200160002081905550505b6007600084815260200190815260200160002060009055600660008573ffffffffffffffffffffffffffffffffffffffff1673ffffffffffffffffffffffffffffffffffffffff16815260200190815260200160002060008381526020019081526020016000206000905550505050565b600060016008805490506122309190613a40565b90506000600960008481526020019081526020016000205490506000600883815481106122605761225f612f90565b5b90600052602060002001549050806008838154811061228257612281612f90565b5b9060005260206000200181905550816009600083815260200190815260200160002081905550600960008581526020019081526020016000206000905560088054806122d1576122d0613aa8565b5b6001900381819060005260206000200160009055905550505050565b60006122f883610988565b905081600660008573ffffffffffffffffffffffffffffffffffffffff1673ffffffffffffffffffffffffffffffffffffffff168152602001908152602001600020600083815260200190815260200160002081905550806007600084815260200190815260200160002081905550505050565b600080600090507a184f03e93ff9f4daa797ed6e38ed64bf6a1f01000000000000000083106123ca577a184f03e93ff9f4daa797ed6e38ed64bf6a1f01000000000000000083816123c0576123bf613a11565b5b0492506040810190505b6d04ee2d6d415b85acef81000000008310612407576d04ee2d6d415b85acef810000000083816123fd576123fc613a11565b5b0492506020810190505b662386f26fc10000831061243657662386f26fc10000838161242c5761242b613a11565b5b0492506010810190505b6305f5e100831061245f576305f5e100838161245557612454613a11565b5b0492506008810190505b612710831061248457612710838161247a57612479613a11565b5b0492506004810190505b606483106124a7576064838161249d5761249c613a11565b5b0492506002810190505b600a83106124b6576001810190505b80915050919050565b6000604051905090565b600080fd5b600080fd5b60007fffffffff0000000000000000000000000000000000000000000000000000000082169050919050565b612508816124d3565b811461251357600080fd5b50565b600081359050612525816124ff565b92915050565b600060208284031215612541576125406124c9565b5b600061254f84828501612516565b91505092915050565b60008115159050919050565b61256d81612558565b82525050565b60006020820190506125886000830184612564565b92915050565b600081519050919050565b600082825260208201905092915050565b60005b838110156125c85780820151818401526020810190506125ad565b60008484015250505050565b6000601f19601f8301169050919050565b60006125f08261258e565b6125fa8185612599565b935061260a8185602086016125aa565b612613816125d4565b840191505092915050565b6000602082019050818103600083015261263881846125e5565b905092915050565b6000819050919050565b61265381612640565b811461265e57600080fd5b50565b6000813590506126708161264a565b92915050565b60006020828403121561268c5761268b6124c9565b5b600061269a84828501612661565b91505092915050565b600073ffffffffffffffffffffffffffffffffffffffff82169050919050565b60006126ce826126a3565b9050919050565b6126de816126c3565b82525050565b60006020820190506126f960008301846126d5565b92915050565b612708816126c3565b811461271357600080fd5b50565b600081359050612725816126ff565b92915050565b60008060408385031215612742576127416124c9565b5b600061275085828601612716565b925050602061276185828601612661565b9150509250929050565b600080fd5b600080fd5b7f4e487b7100000000000000000000000000000000000000000000000000000000600052604160045260246000fd5b6127ad826125d4565b810181811067ffffffffffffffff821117156127cc576127cb612775565b5b80604052505050565b60006127df6124bf565b90506127eb82826127a4565b919050565b600067ffffffffffffffff82111561280b5761280a612775565b5b612814826125d4565b9050602081019050919050565b82818337600083830152505050565b600061284361283e846127f0565b6127d5565b90508281526020810184848401111561285f5761285e612770565b5b61286a848285612821565b509392505050565b600082601f8301126128875761288661276b565b5b8135612897848260208601612830565b91505092915050565b600080604083850312156128b7576128b66124c9565b5b600083013567ffffffffffffffff8111156128d5576128d46124ce565b5b6128e185828601612872565b92505060206128f285828601612716565b9150509250929050565b61290581612640565b82525050565b600060208201905061292060008301846128fc565b92915050565b60008060006060848603121561293f5761293e6124c9565b5b600061294d86828701612716565b935050602061295e86828701612716565b925050604061296f86828701612661565b9150509250925092565b60006020828403121561298f5761298e6124c9565b5b600061299d84828501612716565b91505092915050565b600081519050919050565b600082825260208201905092915050565b6000819050602082019050919050565b6129db81612640565b82525050565b60006129ed83836129d2565b60208301905092915050565b6000602082019050919050565b6000612a11826129a6565b612a1b81856129b1565b9350612a26836129c2565b8060005b83811015612a57578151612a3e88826129e1565b9750612a49836129f9565b925050600181019050612a2a565b5085935050505092915050565b60006020820190508181036000830152612a7e8184612a06565b905092915050565b612a8f81612558565b8114612a9a57600080fd5b50565b600081359050612aac81612a86565b92915050565b60008060408385031215612ac957612ac86124c9565b5b6000612ad785828601612716565b9250506020612ae885828601612a9d565b9150509250929050565b600067ffffffffffffffff821115612b0d57612b0c612775565b5b612b16826125d4565b9050602081019050919050565b6000612b36612b3184612af2565b6127d5565b905082815260208101848484011115612b5257612b51612770565b5b612b5d848285612821565b509392505050565b600082601f830112612b7a57612b7961276b565b5b8135612b8a848260208601612b23565b91505092915050565b60008060008060808587031215612bad57612bac6124c9565b5b6000612bbb87828801612716565b9450506020612bcc87828801612716565b9350506040612bdd87828801612661565b925050606085013567ffffffffffffffff811115612bfe57612bfd6124ce565b5b612c0a87828801612b65565b91505092959194509250565b60008060408385031215612c2d57612c2c6124c9565b5b6000612c3b85828601612716565b9250506020612c4c85828601612716565b9150509250929050565b7f4e487b7100000000000000000000000000000000000000000000000000000000600052602260045260246000fd5b60006002820490506001821680612c9d57607f821691505b602082108103612cb057612caf612c56565b5b50919050565b7f4552433732313a20617070726f76616c20746f2063757272656e74206f776e6560008201527f7200000000000000000000000000000000000000000000000000000000000000602082015250565b6000612d12602183612599565b9150612d1d82612cb6565b604082019050919050565b60006020820190508181036000830152612d4181612d05565b9050919050565b7f4552433732313a20617070726f76652063616c6c6572206973206e6f7420746f60008201527f6b656e206f776e6572206f7220617070726f76656420666f7220616c6c000000602082015250565b6000612da4603d83612599565b9150612daf82612d48565b604082019050919050565b60006020820190508181036000830152612dd381612d97565b9050919050565b7f4552433732313a2063616c6c6572206973206e6f7420746f6b656e206f776e6560008201527f72206f7220617070726f76656400000000000000000000000000000000000000602082015250565b6000612e36602d83612599565b9150612e4182612dda565b604082019050919050565b60006020820190508181036000830152612e6581612e29565b9050919050565b7f455243373231456e756d657261626c653a206f776e657220696e646578206f7560008201527f74206f6620626f756e6473000000000000000000000000000000000000000000602082015250565b6000612ec8602b83612599565b9150612ed382612e6c565b604082019050919050565b60006020820190508181036000830152612ef781612ebb565b9050919050565b7f455243373231456e756d657261626c653a20676c6f62616c20696e646578206f60008201527f7574206f6620626f756e64730000000000000000000000000000000000000000602082015250565b6000612f5a602c83612599565b9150612f6582612efe565b604082019050919050565b60006020820190508181036000830152612f8981612f4d565b9050919050565b7f4e487b7100000000000000000000000000000000000000000000000000000000600052603260045260246000fd5b7f4e487b7100000000000000000000000000000000000000000000000000000000600052601160045260246000fd5b6000612ff982612640565b91507fffffffffffffffffffffffffffffffffffffffffffffffffffffffffffffffff820361302b5761302a612fbf565b5b600182019050919050565b7f4552433732313a20696e76616c696420746f6b656e2049440000000000000000600082015250565b600061306c601883612599565b915061307782613036565b602082019050919050565b6000602082019050818103600083015261309b8161305f565b9050919050565b7f4552433732313a2061646472657373207a65726f206973206e6f74206120766160008201527f6c6964206f776e65720000000000000000000000000000000000000000000000602082015250565b60006130fe602983612599565b9150613109826130a2565b604082019050919050565b6000602082019050818103600083015261312d816130f1565b9050919050565b7f4f776e61626c653a206e6577206f776e657220697320746865207a65726f206160008201527f6464726573730000000000000000000000000000000000000000000000000000602082015250565b6000613190602683612599565b915061319b82613134565b604082019050919050565b600060208201905081810360008301526131bf81613183565b9050919050565b7f45524337323155524953746f726167653a2055524920736574206f66206e6f6e60008201527f6578697374656e7420746f6b656e000000000000000000000000000000000000602082015250565b6000613222602e83612599565b915061322d826131c6565b604082019050919050565b6000602082019050818103600083015261325181613215565b9050919050565b60008190508160005260206000209050919050565b60006020601f8301049050919050565b600082821b905092915050565b6000600883026132ba7fffffffffffffffffffffffffffffffffffffffffffffffffffffffffffffffff8261327d565b6132c4868361327d565b95508019841693508086168417925050509392505050565b6000819050919050565b60006133016132fc6132f784612640565b6132dc565b612640565b9050919050565b6000819050919050565b61331b836132e6565b61332f61332782613308565b84845461328a565b825550505050565b600090565b613344613337565b61334f818484613312565b505050565b5b818110156133735761336860008261333c565b600181019050613355565b5050565b601f8211156133b85761338981613258565b6133928461326d565b810160208510156133a1578190505b6133b56133ad8561326d565b830182613354565b50505b505050565b600082821c905092915050565b60006133db600019846008026133bd565b1980831691505092915050565b60006133f483836133ca565b9150826002028217905092915050565b61340d8261258e565b67ffffffffffffffff81111561342657613425612775565b5b6134308254612c85565b61343b828285613377565b600060209050601f83116001811461346e576000841561345c578287015190505b61346685826133e8565b8655506134ce565b601f19841661347c86613258565b60005b828110156134a45784890151825560018201915060208501945060208101905061347f565b868310156134c157848901516134bd601f8916826133ca565b8355505b6001600288020188555050505b505050505050565b7f4552433732313a207472616e736665722066726f6d20696e636f72726563742060008201527f6f776e6572000000000000000000000000000000000000000000000000000000602082015250565b6000613532602583612599565b915061353d826134d6565b604082019050919050565b6000602082019050818103600083015261356181613525565b9050919050565b7f4552433732313a207472616e7366657220746f20746865207a65726f2061646460008201527f7265737300000000000000000000000000000000000000000000000000000000602082015250565b60006135c4602483612599565b91506135cf82613568565b604082019050919050565b600060208201905081810360008301526135f3816135b7565b9050919050565b7f4f776e61626c653a2063616c6c6572206973206e6f7420746865206f776e6572600082015250565b6000613630602083612599565b915061363b826135fa565b602082019050919050565b6000602082019050818103600083015261365f81613623565b9050919050565b7f4552433732313a20617070726f766520746f2063616c6c657200000000000000600082015250565b600061369c601983612599565b91506136a782613666565b602082019050919050565b600060208201905081810360008301526136cb8161368f565b9050919050565b7f4552433732313a207472616e7366657220746f206e6f6e20455243373231526560008201527f63656976657220696d706c656d656e7465720000000000000000000000000000602082015250565b600061372e603283612599565b9150613739826136d2565b604082019050919050565b6000602082019050818103600083015261375d81613721565b9050919050565b600081905092915050565b600061377a8261258e565b6137848185613764565b93506137948185602086016125aa565b80840191505092915050565b60006137ac828561376f565b91506137b8828461376f565b91508190509392505050565b600081519050919050565b600082825260208201905092915050565b60006137eb826137c4565b6137f581856137cf565b93506138058185602086016125aa565b61380e816125d4565b840191505092915050565b600060808201905061382e60008301876126d5565b61383b60208301866126d5565b61384860408301856128fc565b818103606083015261385a81846137e0565b905095945050505050565b600081519050613874816124ff565b92915050565b6000602082840312156138905761388f6124c9565b5b600061389e84828501613865565b91505092915050565b7f4552433732313a206d696e7420746f20746865207a65726f2061646472657373600082015250565b60006138dd602083612599565b91506138e8826138a7565b602082019050919050565b6000602082019050818103600083015261390c816138d0565b9050919050565b7f4552433732313a20746f6b656e20616c7265616479206d696e74656400000000600082015250565b6000613949601c83612599565b915061395482613913565b602082019050919050565b600060208201905081810360008301526139788161393c565b9050919050565b7f455243373231456e756d657261626c653a20636f6e736563757469766520747260008201527f616e7366657273206e6f7420737570706f727465640000000000000000000000602082015250565b60006139db603583612599565b91506139e68261397f565b604082019050919050565b60006020820190508181036000830152613a0a816139ce565b9050919050565b7f4e487b7100000000000000000000000000000000000000000000000000000000600052601260045260246000fd5b6000613a4b82612640565b9150613a5683612640565b9250828203905081811115613a6e57613a6d612fbf565b5b92915050565b6000613a7f82612640565b9150613a8a83612640565b9250828201905080821115613aa257613aa1612fbf565b5b92915050565b7f4e487b7100000000000000000000000000000000000000000000000000000000600052603160045260246000fdfea26469706673582212205c253e4b68daf0a2374e226a425c91a6fd42d6d6efc140468fa6bf4fd1fcb5a064736f6c63430008110033",
  "immutableReferences": {},
  "source": "// SPDX-License-Identifier: MIT\n// // from \"https://github.com/OpenZeppelin/openzeppelin-contracts/blob/master/contracts/token/ERC721/ERC721.sol\";\n// import \"./ERC721.sol\";\n// // from \"https://github.com/OpenZeppelin/openzeppelin-contracts/blob/master/contracts/access/Ownable.sol\";\n// import \"./Ownable.sol\";\npragma solidity ^0.8.17;\nimport \"@openzeppelin/contracts/token/ERC721/ERC721.sol\";\nimport \"@openzeppelin/contracts/token/ERC721/extensions/ERC721Enumerable.sol\";\nimport \"@openzeppelin/contracts/token/ERC721/extensions/ERC721URIStorage.sol\";\nimport \"@openzeppelin/contracts/access/Ownable.sol\";\nimport \"@openzeppelin/contracts/utils/Counters.sol\";\nimport \"./I_MedicalCertificate.sol\";\ncontract MedicalCertificate is ERC721, ERC721Enumerable, ERC721URIStorage, Ownable, I_MedicalCertificate{\n    using Counters for Counters.Counter;\n    Counters.Counter private _idCounter;\n    \n    constructor() ERC721(\"MedicalCertificate\", \"MC\") {}\n\n    function addCertificate(string memory certificate, address patient) external{\n        uint256 id = _idCounter.current();\n        _idCounter.increment();\n        _safeMint(patient, id);\n        _setTokenURI(id, certificate);\n    }\n    function getCertificate(uint256 id) external view returns(string memory certificate){\n        return tokenURI(id);\n    }\n    function listCertificatesIdOfAddress(address _address) external view returns(uint256[] memory certificateIds){\n        uint256 numberOfCertificates = balanceOf(_address);\n        uint256[] memory ret = new uint256[](numberOfCertificates);\n        for(uint256 i=0; i<numberOfCertificates; i++){\n            ret[i] = tokenOfOwnerByIndex(_address, i);\n        }\n        return ret;\n    }\n\n\n    function _beforeTokenTransfer(address from, address to, uint256 firstTokenId, uint256 batchSize) internal override(ERC721, ERC721Enumerable) {ERC721Enumerable._beforeTokenTransfer(from, to, firstTokenId, batchSize);}\n    function _burn(uint256 tokenId) internal override(ERC721, ERC721URIStorage){ERC721URIStorage._burn(tokenId);}\n    function supportsInterface(bytes4 interfaceId) public view override(ERC721, ERC721Enumerable) returns (bool){return ERC721Enumerable.supportsInterface(interfaceId);}\n    function tokenURI(uint256 tokenId) public view override(ERC721, ERC721URIStorage) returns (string memory){return ERC721URIStorage.tokenURI(tokenId);}\n    \n}",
  "sourcePath": "/home/danielchang/SoftwareEngineer/medical-certificate-smart-contract/contracts/MedicalCertificate_ERC721.sol",
  "compiler": {
    "name": "solc",
    "version": "0.8.17+commit.8df45f5f.Emscripten.clang"
  },
  "schemaVersion": "3.4.10",
  "updatedAt": "2022-11-29T08:59:37.210Z",
  "devdoc": {
    "kind": "dev",
    "methods": {
      "approve(address,uint256)": {
        "details": "See {IERC721-approve}."
      },
      "balanceOf(address)": {
        "details": "See {IERC721-balanceOf}."
      },
      "getApproved(uint256)": {
        "details": "See {IERC721-getApproved}."
      },
      "isApprovedForAll(address,address)": {
        "details": "See {IERC721-isApprovedForAll}."
      },
      "name()": {
        "details": "See {IERC721Metadata-name}."
      },
      "owner()": {
        "details": "Returns the address of the current owner."
      },
      "ownerOf(uint256)": {
        "details": "See {IERC721-ownerOf}."
      },
      "renounceOwnership()": {
        "details": "Leaves the contract without owner. It will not be possible to call `onlyOwner` functions anymore. Can only be called by the current owner. NOTE: Renouncing ownership will leave the contract without an owner, thereby removing any functionality that is only available to the owner."
      },
      "safeTransferFrom(address,address,uint256)": {
        "details": "See {IERC721-safeTransferFrom}."
      },
      "safeTransferFrom(address,address,uint256,bytes)": {
        "details": "See {IERC721-safeTransferFrom}."
      },
      "setApprovalForAll(address,bool)": {
        "details": "See {IERC721-setApprovalForAll}."
      },
      "symbol()": {
        "details": "See {IERC721Metadata-symbol}."
      },
      "tokenByIndex(uint256)": {
        "details": "See {IERC721Enumerable-tokenByIndex}."
      },
      "tokenOfOwnerByIndex(address,uint256)": {
        "details": "See {IERC721Enumerable-tokenOfOwnerByIndex}."
      },
      "totalSupply()": {
        "details": "See {IERC721Enumerable-totalSupply}."
      },
      "transferFrom(address,address,uint256)": {
        "details": "See {IERC721-transferFrom}."
      },
      "transferOwnership(address)": {
        "details": "Transfers ownership of the contract to a new account (`newOwner`). Can only be called by the current owner."
      }
    },
    "version": 1
  },
  "userdoc": {
    "kind": "user",
    "methods": {},
    "version": 1
  }
}