{
  "contractName": "MedicalCertificate",
  "abi": [
    {
      "inputs": [],
      "stateMutability": "nonpayable",
      "type": "constructor"
    },
    {
      "anonymous": false,
      "inputs": [
        {
          "indexed": true,
          "internalType": "address",
          "name": "owner",
          "type": "address"
        },
        {
          "indexed": true,
          "internalType": "address",
          "name": "approved",
          "type": "address"
        },
        {
          "indexed": true,
          "internalType": "uint256",
          "name": "tokenId",
          "type": "uint256"
        }
      ],
      "name": "Approval",
      "type": "event"
    },
    {
      "anonymous": false,
      "inputs": [
        {
          "indexed": true,
          "internalType": "address",
          "name": "owner",
          "type": "address"
        },
        {
          "indexed": true,
          "internalType": "address",
          "name": "operator",
          "type": "address"
        },
        {
          "indexed": false,
          "internalType": "bool",
          "name": "approved",
          "type": "bool"
        }
      ],
      "name": "ApprovalForAll",
      "type": "event"
    },
    {
      "anonymous": false,
      "inputs": [
        {
          "indexed": true,
          "internalType": "address",
          "name": "previousOwner",
          "type": "address"
        },
        {
          "indexed": true,
          "internalType": "address",
          "name": "newOwner",
          "type": "address"
        }
      ],
      "name": "OwnershipTransferred",
      "type": "event"
    },
    {
      "anonymous": false,
      "inputs": [
        {
          "indexed": true,
          "internalType": "address",
          "name": "from",
          "type": "address"
        },
        {
          "indexed": true,
          "internalType": "address",
          "name": "to",
          "type": "address"
        },
        {
          "indexed": true,
          "internalType": "uint256",
          "name": "tokenId",
          "type": "uint256"
        }
      ],
      "name": "Transfer",
      "type": "event"
    },
    {
      "inputs": [
        {
          "internalType": "address",
          "name": "to",
          "type": "address"
        },
        {
          "internalType": "uint256",
          "name": "tokenId",
          "type": "uint256"
        }
      ],
      "name": "approve",
      "outputs": [],
      "stateMutability": "nonpayable",
      "type": "function"
    },
    {
      "inputs": [
        {
          "internalType": "address",
          "name": "owner",
          "type": "address"
        }
      ],
      "name": "balanceOf",
      "outputs": [
        {
          "internalType": "uint256",
          "name": "",
          "type": "uint256"
        }
      ],
      "stateMutability": "view",
      "type": "function"
    },
    {
      "inputs": [
        {
          "internalType": "uint256",
          "name": "tokenId",
          "type": "uint256"
        }
      ],
      "name": "getApproved",
      "outputs": [
        {
          "internalType": "address",
          "name": "",
          "type": "address"
        }
      ],
      "stateMutability": "view",
      "type": "function"
    },
    {
      "inputs": [
        {
          "internalType": "address",
          "name": "owner",
          "type": "address"
        },
        {
          "internalType": "address",
          "name": "operator",
          "type": "address"
        }
      ],
      "name": "isApprovedForAll",
      "outputs": [
        {
          "internalType": "bool",
          "name": "",
          "type": "bool"
        }
      ],
      "stateMutability": "view",
      "type": "function"
    },
    {
      "inputs": [],
      "name": "name",
      "outputs": [
        {
          "internalType": "string",
          "name": "",
          "type": "string"
        }
      ],
      "stateMutability": "view",
      "type": "function"
    },
    {
      "inputs": [],
      "name": "owner",
      "outputs": [
        {
          "internalType": "address",
          "name": "",
          "type": "address"
        }
      ],
      "stateMutability": "view",
      "type": "function"
    },
    {
      "inputs": [
        {
          "internalType": "uint256",
          "name": "tokenId",
          "type": "uint256"
        }
      ],
      "name": "ownerOf",
      "outputs": [
        {
          "internalType": "address",
          "name": "",
          "type": "address"
        }
      ],
      "stateMutability": "view",
      "type": "function"
    },
    {
      "inputs": [],
      "name": "renounceOwnership",
      "outputs": [],
      "stateMutability": "nonpayable",
      "type": "function"
    },
    {
      "inputs": [
        {
          "internalType": "address",
          "name": "from",
          "type": "address"
        },
        {
          "internalType": "address",
          "name": "to",
          "type": "address"
        },
        {
          "internalType": "uint256",
          "name": "tokenId",
          "type": "uint256"
        }
      ],
      "name": "safeTransferFrom",
      "outputs": [],
      "stateMutability": "nonpayable",
      "type": "function"
    },
    {
      "inputs": [
        {
          "internalType": "address",
          "name": "from",
          "type": "address"
        },
        {
          "internalType": "address",
          "name": "to",
          "type": "address"
        },
        {
          "internalType": "uint256",
          "name": "tokenId",
          "type": "uint256"
        },
        {
          "internalType": "bytes",
          "name": "data",
          "type": "bytes"
        }
      ],
      "name": "safeTransferFrom",
      "outputs": [],
      "stateMutability": "nonpayable",
      "type": "function"
    },
    {
      "inputs": [
        {
          "internalType": "address",
          "name": "operator",
          "type": "address"
        },
        {
          "internalType": "bool",
          "name": "approved",
          "type": "bool"
        }
      ],
      "name": "setApprovalForAll",
      "outputs": [],
      "stateMutability": "nonpayable",
      "type": "function"
    },
    {
      "inputs": [],
      "name": "symbol",
      "outputs": [
        {
          "internalType": "string",
          "name": "",
          "type": "string"
        }
      ],
      "stateMutability": "view",
      "type": "function"
    },
    {
      "inputs": [
        {
          "internalType": "uint256",
          "name": "index",
          "type": "uint256"
        }
      ],
      "name": "tokenByIndex",
      "outputs": [
        {
          "internalType": "uint256",
          "name": "",
          "type": "uint256"
        }
      ],
      "stateMutability": "view",
      "type": "function"
    },
    {
      "inputs": [
        {
          "internalType": "address",
          "name": "owner",
          "type": "address"
        },
        {
          "internalType": "uint256",
          "name": "index",
          "type": "uint256"
        }
      ],
      "name": "tokenOfOwnerByIndex",
      "outputs": [
        {
          "internalType": "uint256",
          "name": "",
          "type": "uint256"
        }
      ],
      "stateMutability": "view",
      "type": "function"
    },
    {
      "inputs": [],
      "name": "totalSupply",
      "outputs": [
        {
          "internalType": "uint256",
          "name": "",
          "type": "uint256"
        }
      ],
      "stateMutability": "view",
      "type": "function"
    },
    {
      "inputs": [
        {
          "internalType": "address",
          "name": "from",
          "type": "address"
        },
        {
          "internalType": "address",
          "name": "to",
          "type": "address"
        },
        {
          "internalType": "uint256",
          "name": "tokenId",
          "type": "uint256"
        }
      ],
      "name": "transferFrom",
      "outputs": [],
      "stateMutability": "nonpayable",
      "type": "function"
    },
    {
      "inputs": [
        {
          "internalType": "address",
          "name": "newOwner",
          "type": "address"
        }
      ],
      "name": "transferOwnership",
      "outputs": [],
      "stateMutability": "nonpayable",
      "type": "function"
    },
    {
      "inputs": [
        {
          "internalType": "string",
          "name": "symptoms",
          "type": "string"
        },
        {
          "internalType": "string",
          "name": "levels",
          "type": "string"
        },
        {
          "internalType": "address",
          "name": "patient",
          "type": "address"
        }
      ],
      "name": "addCertificate",
      "outputs": [],
      "stateMutability": "nonpayable",
      "type": "function"
    },
    {
      "inputs": [
        {
          "internalType": "uint256",
          "name": "id",
          "type": "uint256"
        }
      ],
      "name": "getSymptoms",
      "outputs": [
        {
          "internalType": "string",
          "name": "symptoms",
          "type": "string"
        }
      ],
      "stateMutability": "view",
      "type": "function"
    },
    {
      "inputs": [
        {
          "internalType": "uint256",
          "name": "id",
          "type": "uint256"
        }
      ],
      "name": "getLevels",
      "outputs": [
        {
          "internalType": "string",
          "name": "levels",
          "type": "string"
        }
      ],
      "stateMutability": "view",
      "type": "function"
    },
    {
      "inputs": [
        {
          "internalType": "address",
          "name": "_address",
          "type": "address"
        }
      ],
      "name": "listCertificatesIdOfAddress",
      "outputs": [
        {
          "internalType": "uint256[]",
          "name": "certificateIds",
          "type": "uint256[]"
        }
      ],
      "stateMutability": "view",
      "type": "function"
    },
    {
      "inputs": [
        {
          "internalType": "address",
          "name": "patient",
          "type": "address"
        }
      ],
      "name": "cleanAllCertificate",
      "outputs": [],
      "stateMutability": "nonpayable",
      "type": "function"
    },
    {
      "inputs": [
        {
          "internalType": "bytes4",
          "name": "interfaceId",
          "type": "bytes4"
        }
      ],
      "name": "supportsInterface",
      "outputs": [
        {
          "internalType": "bool",
          "name": "",
          "type": "bool"
        }
      ],
      "stateMutability": "view",
      "type": "function"
    },
    {
      "inputs": [
        {
          "internalType": "uint256",
          "name": "tokenId",
          "type": "uint256"
        }
      ],
      "name": "tokenURI",
      "outputs": [
        {
          "internalType": "string",
          "name": "",
          "type": "string"
        }
      ],
      "stateMutability": "view",
      "type": "function"
    }
  ],
  "bytecode": "0x60806040523480156200001157600080fd5b506040518060400160405280601281526020017f4d65646963616c436572746966696361746500000000000000000000000000008152506040518060400160405280600281526020017f4d4300000000000000000000000000000000000000000000000000000000000081525081600090816200008f919062000412565b508060019081620000a1919062000412565b505050620000c4620000b8620000ca60201b60201c565b620000d260201b60201c565b620004f9565b600033905090565b6000600b60009054906101000a900473ffffffffffffffffffffffffffffffffffffffff16905081600b60006101000a81548173ffffffffffffffffffffffffffffffffffffffff021916908373ffffffffffffffffffffffffffffffffffffffff1602179055508173ffffffffffffffffffffffffffffffffffffffff168173ffffffffffffffffffffffffffffffffffffffff167f8be0079c531659141344cd1fd0a4f28419497f9722a3daafe3b4186f6b6457e060405160405180910390a35050565b600081519050919050565b7f4e487b7100000000000000000000000000000000000000000000000000000000600052604160045260246000fd5b7f4e487b7100000000000000000000000000000000000000000000000000000000600052602260045260246000fd5b600060028204905060018216806200021a57607f821691505b60208210810362000230576200022f620001d2565b5b50919050565b60008190508160005260206000209050919050565b60006020601f8301049050919050565b600082821b905092915050565b6000600883026200029a7fffffffffffffffffffffffffffffffffffffffffffffffffffffffffffffffff826200025b565b620002a686836200025b565b95508019841693508086168417925050509392505050565b6000819050919050565b6000819050919050565b6000620002f3620002ed620002e784620002be565b620002c8565b620002be565b9050919050565b6000819050919050565b6200030f83620002d2565b620003276200031e82620002fa565b84845462000268565b825550505050565b600090565b6200033e6200032f565b6200034b81848462000304565b505050565b5b8181101562000373576200036760008262000334565b60018101905062000351565b5050565b601f821115620003c2576200038c8162000236565b62000397846200024b565b81016020851015620003a7578190505b620003bf620003b6856200024b565b83018262000350565b50505b505050565b600082821c905092915050565b6000620003e760001984600802620003c7565b1980831691505092915050565b6000620004028383620003d4565b9150826002028217905092915050565b6200041d8262000198565b67ffffffffffffffff811115620004395762000438620001a3565b5b62000445825462000201565b6200045282828562000377565b600060209050601f8311600181146200048a576000841562000475578287015190505b620004818582620003f4565b865550620004f1565b601f1984166200049a8662000236565b60005b82811015620004c4578489015182556001820191506020850194506020810190506200049d565b86831015620004e45784890151620004e0601f891682620003d4565b8355505b6001600288020188555050505b505050505050565b6141ef80620005096000396000f3fe608060405234801561001057600080fd5b50600436106101585760003560e01c806370a08231116100c3578063b30646661161007c578063b3064666146103d7578063b88d4fde14610407578063c87b56dd14610423578063e985e9c514610453578063f2fde38b14610483578063f43785f91461049f57610158565b806370a0823114610329578063715018a6146103595780637937c2bf146103635780638da5cb5b1461037f57806395d89b411461039d578063a22cb465146103bb57610158565b80632f745c59116101155780632f745c5914610231578063362846dc1461026157806342842e0e1461027d5780634f6ccce7146102995780635e19e975146102c95780636352211e146102f957610158565b806301ffc9a71461015d57806306fdde031461018d578063081812fc146101ab578063095ea7b3146101db57806318160ddd146101f757806323b872dd14610215575b600080fd5b61017760048036038101906101729190612b72565b6104cf565b6040516101849190612bba565b60405180910390f35b6101956104e1565b6040516101a29190612c65565b60405180910390f35b6101c560048036038101906101c09190612cbd565b610573565b6040516101d29190612d2b565b60405180910390f35b6101f560048036038101906101f09190612d72565b6105b9565b005b6101ff6106d0565b60405161020c9190612dc1565b60405180910390f35b61022f600480360381019061022a9190612ddc565b6106dd565b005b61024b60048036038101906102469190612d72565b61073d565b6040516102589190612dc1565b60405180910390f35b61027b60048036038101906102769190612e94565b6107e2565b005b61029760048036038101906102929190612ddc565b610ad8565b005b6102b360048036038101906102ae9190612cbd565b610af8565b6040516102c09190612dc1565b60405180910390f35b6102e360048036038101906102de9190612f29565b610b69565b6040516102f09190613014565b60405180910390f35b610313600480360381019061030e9190612cbd565b610c17565b6040516103209190612d2b565b60405180910390f35b610343600480360381019061033e9190612f29565b610c9d565b6040516103509190612dc1565b60405180910390f35b610361610d54565b005b61037d60048036038101906103789190612f29565b610d68565b005b610387610db3565b6040516103949190612d2b565b60405180910390f35b6103a5610ddd565b6040516103b29190612c65565b60405180910390f35b6103d560048036038101906103d09190613062565b610e6f565b005b6103f160048036038101906103ec9190612cbd565b610e85565b6040516103fe9190612c65565b60405180910390f35b610421600480360381019061041c91906131d2565b610f2a565b005b61043d60048036038101906104389190612cbd565b610f8c565b60405161044a9190612c65565b60405180910390f35b61046d60048036038101906104689190613255565b610f9e565b60405161047a9190612bba565b60405180910390f35b61049d60048036038101906104989190612f29565b611032565b005b6104b960048036038101906104b49190612cbd565b6110b5565b6040516104c69190612c65565b60405180910390f35b60006104da8261115a565b9050919050565b6060600080546104f0906132c4565b80601f016020809104026020016040519081016040528092919081815260200182805461051c906132c4565b80156105695780601f1061053e57610100808354040283529160200191610569565b820191906000526020600020905b81548152906001019060200180831161054c57829003601f168201915b5050505050905090565b600061057e826111d4565b6004600083815260200190815260200160002060009054906101000a900473ffffffffffffffffffffffffffffffffffffffff169050919050565b60006105c482610c17565b90508073ffffffffffffffffffffffffffffffffffffffff168373ffffffffffffffffffffffffffffffffffffffff1603610634576040517f08c379a000000000000000000000000000000000000000000000000000000000815260040161062b90613367565b60405180910390fd5b8073ffffffffffffffffffffffffffffffffffffffff1661065361121f565b73ffffffffffffffffffffffffffffffffffffffff16148061068257506106818161067c61121f565b610f9e565b5b6106c1576040517f08c379a00000000000000000000000000000000000000000000000000000000081526004016106b8906133f9565b60405180910390fd5b6106cb8383611227565b505050565b6000600880549050905090565b6106ee6106e861121f565b826112e0565b61072d576040517f08c379a00000000000000000000000000000000000000000000000000000000081526004016107249061348b565b60405180910390fd5b610738838383611375565b505050565b600061074883610c9d565b8210610789576040517f08c379a00000000000000000000000000000000000000000000000000000000081526004016107809061351d565b60405180910390fd5b600660008473ffffffffffffffffffffffffffffffffffffffff1673ffffffffffffffffffffffffffffffffffffffff168152602001908152602001600020600083815260200190815260200160002054905092915050565b6107ea61166e565b60006040518060400160405280600181526020017f2c000000000000000000000000000000000000000000000000000000000000008152509050600086868080601f016020809104026020016040519081016040528093929190818152602001838380828437600081840152601f19601f820116905080830192505050505050509050600085858080601f016020809104026020016040519081016040528093929190818152602001838380828437600081840152601f19601f8201169050808301925050505050505090506000805b835181101561096b57846000815181106108d7576108d661353d565b5b602001015160f81c60f81b7effffffffffffffffffffffffffffffffffffffffffffffffffffffffffffff19168482815181106109175761091661353d565b5b602001015160f81c60f81b7effffffffffffffffffffffffffffffffffffffffffffffffffffffffffffff191603610958578180610954906135a5565b9250505b8080610963906135ed565b9150506108ba565b5060005b8251811015610a20578460008151811061098c5761098b61353d565b5b602001015160f81c60f81b7effffffffffffffffffffffffffffffffffffffffffffffffffffffffffffff19168382815181106109cc576109cb61353d565b5b602001015160f81c60f81b7effffffffffffffffffffffffffffffffffffffffffffffffffffffffffffff191603610a0d578180610a0990613635565b9250505b8080610a18906135ed565b91505061096f565b5060008114610a64576040517f08c379a0000000000000000000000000000000000000000000000000000000008152600401610a5b906136ef565b60405180910390fd5b6000610a70600c6116ec565b9050610a7c600c6116fa565b610a868682611710565b8989600d60008481526020019081526020016000209182610aa89291906138c6565b508787600e60008481526020019081526020016000209182610acb9291906138c6565b5050505050505050505050565b610af383838360405180602001604052806000815250610f2a565b505050565b6000610b026106d0565b8210610b43576040517f08c379a0000000000000000000000000000000000000000000000000000000008152600401610b3a90613a08565b60405180910390fd5b60088281548110610b5757610b5661353d565b5b90600052602060002001549050919050565b60606000610b7683610c9d565b905060008167ffffffffffffffff811115610b9457610b936130a7565b5b604051908082528060200260200182016040528015610bc25781602001602082028036833780820191505090505b50905060005b82811015610c0c57610bda858261073d565b828281518110610bed57610bec61353d565b5b6020026020010181815250508080610c04906135ed565b915050610bc8565b508092505050919050565b600080610c238361172e565b9050600073ffffffffffffffffffffffffffffffffffffffff168173ffffffffffffffffffffffffffffffffffffffff1603610c94576040517f08c379a0000000000000000000000000000000000000000000000000000000008152600401610c8b90613a74565b60405180910390fd5b80915050919050565b60008073ffffffffffffffffffffffffffffffffffffffff168273ffffffffffffffffffffffffffffffffffffffff1603610d0d576040517f08c379a0000000000000000000000000000000000000000000000000000000008152600401610d0490613b06565b60405180910390fd5b600360008373ffffffffffffffffffffffffffffffffffffffff1673ffffffffffffffffffffffffffffffffffffffff168152602001908152602001600020549050919050565b610d5c61166e565b610d66600061176b565b565b610d7061166e565b6000610d7b82610c9d565b905060005b81811015610dae57610d9b610d9684600061073d565b611831565b8080610da6906135ed565b915050610d80565b505050565b6000600b60009054906101000a900473ffffffffffffffffffffffffffffffffffffffff16905090565b606060018054610dec906132c4565b80601f0160208091040260200160405190810160405280929190818152602001828054610e18906132c4565b8015610e655780601f10610e3a57610100808354040283529160200191610e65565b820191906000526020600020905b815481529060010190602001808311610e4857829003601f168201915b5050505050905090565b610e81610e7a61121f565b838361183d565b5050565b6060600d60008381526020019081526020016000208054610ea5906132c4565b80601f0160208091040260200160405190810160405280929190818152602001828054610ed1906132c4565b8015610f1e5780601f10610ef357610100808354040283529160200191610f1e565b820191906000526020600020905b815481529060010190602001808311610f0157829003601f168201915b50505050509050919050565b610f3b610f3561121f565b836112e0565b610f7a576040517f08c379a0000000000000000000000000000000000000000000000000000000008152600401610f719061348b565b60405180910390fd5b610f86848484846119a9565b50505050565b6060610f9782611a05565b9050919050565b6000600560008473ffffffffffffffffffffffffffffffffffffffff1673ffffffffffffffffffffffffffffffffffffffff16815260200190815260200160002060008373ffffffffffffffffffffffffffffffffffffffff1673ffffffffffffffffffffffffffffffffffffffff16815260200190815260200160002060009054906101000a900460ff16905092915050565b61103a61166e565b600073ffffffffffffffffffffffffffffffffffffffff168173ffffffffffffffffffffffffffffffffffffffff16036110a9576040517f08c379a00000000000000000000000000000000000000000000000000000000081526004016110a090613b98565b60405180910390fd5b6110b28161176b565b50565b6060600e600083815260200190815260200160002080546110d5906132c4565b80601f0160208091040260200160405190810160405280929190818152602001828054611101906132c4565b801561114e5780601f106111235761010080835404028352916020019161114e565b820191906000526020600020905b81548152906001019060200180831161113157829003601f168201915b50505050509050919050565b60007f780e9d63000000000000000000000000000000000000000000000000000000007bffffffffffffffffffffffffffffffffffffffffffffffffffffffff1916827bffffffffffffffffffffffffffffffffffffffffffffffffffffffff191614806111cd57506111cc82611b17565b5b9050919050565b6111dd81611bf9565b61121c576040517f08c379a000000000000000000000000000000000000000000000000000000000815260040161121390613a74565b60405180910390fd5b50565b600033905090565b816004600083815260200190815260200160002060006101000a81548173ffffffffffffffffffffffffffffffffffffffff021916908373ffffffffffffffffffffffffffffffffffffffff160217905550808273ffffffffffffffffffffffffffffffffffffffff1661129a83610c17565b73ffffffffffffffffffffffffffffffffffffffff167f8c5be1e5ebec7d5bd14f71427d1e84f3dd0314c0f7b2291e5b200ac8c7c3b92560405160405180910390a45050565b6000806112ec83610c17565b90508073ffffffffffffffffffffffffffffffffffffffff168473ffffffffffffffffffffffffffffffffffffffff16148061132e575061132d8185610f9e565b5b8061136c57508373ffffffffffffffffffffffffffffffffffffffff1661135484610573565b73ffffffffffffffffffffffffffffffffffffffff16145b91505092915050565b8273ffffffffffffffffffffffffffffffffffffffff1661139582610c17565b73ffffffffffffffffffffffffffffffffffffffff16146113eb576040517f08c379a00000000000000000000000000000000000000000000000000000000081526004016113e290613c2a565b60405180910390fd5b600073ffffffffffffffffffffffffffffffffffffffff168273ffffffffffffffffffffffffffffffffffffffff160361145a576040517f08c379a000000000000000000000000000000000000000000000000000000000815260040161145190613cbc565b60405180910390fd5b6114678383836001611c3a565b8273ffffffffffffffffffffffffffffffffffffffff1661148782610c17565b73ffffffffffffffffffffffffffffffffffffffff16146114dd576040517f08c379a00000000000000000000000000000000000000000000000000000000081526004016114d490613c2a565b60405180910390fd5b6004600082815260200190815260200160002060006101000a81549073ffffffffffffffffffffffffffffffffffffffff02191690556001600360008573ffffffffffffffffffffffffffffffffffffffff1673ffffffffffffffffffffffffffffffffffffffff168152602001908152602001600020600082825403925050819055506001600360008473ffffffffffffffffffffffffffffffffffffffff1673ffffffffffffffffffffffffffffffffffffffff16815260200190815260200160002060008282540192505081905550816002600083815260200190815260200160002060006101000a81548173ffffffffffffffffffffffffffffffffffffffff021916908373ffffffffffffffffffffffffffffffffffffffff160217905550808273ffffffffffffffffffffffffffffffffffffffff168473ffffffffffffffffffffffffffffffffffffffff167fddf252ad1be2c89b69c2b068fc378daa952ba7f163c4a11628f55a4df523b3ef60405160405180910390a46116698383836001611c4c565b505050565b61167661121f565b73ffffffffffffffffffffffffffffffffffffffff16611694610db3565b73ffffffffffffffffffffffffffffffffffffffff16146116ea576040517f08c379a00000000000000000000000000000000000000000000000000000000081526004016116e190613d28565b60405180910390fd5b565b600081600001549050919050565b6001816000016000828254019250508190555050565b61172a828260405180602001604052806000815250611c52565b5050565b60006002600083815260200190815260200160002060009054906101000a900473ffffffffffffffffffffffffffffffffffffffff169050919050565b6000600b60009054906101000a900473ffffffffffffffffffffffffffffffffffffffff16905081600b60006101000a81548173ffffffffffffffffffffffffffffffffffffffff021916908373ffffffffffffffffffffffffffffffffffffffff1602179055508173ffffffffffffffffffffffffffffffffffffffff168173ffffffffffffffffffffffffffffffffffffffff167f8be0079c531659141344cd1fd0a4f28419497f9722a3daafe3b4186f6b6457e060405160405180910390a35050565b61183a81611cad565b50565b8173ffffffffffffffffffffffffffffffffffffffff168373ffffffffffffffffffffffffffffffffffffffff16036118ab576040517f08c379a00000000000000000000000000000000000000000000000000000000081526004016118a290613d94565b60405180910390fd5b80600560008573ffffffffffffffffffffffffffffffffffffffff1673ffffffffffffffffffffffffffffffffffffffff16815260200190815260200160002060008473ffffffffffffffffffffffffffffffffffffffff1673ffffffffffffffffffffffffffffffffffffffff16815260200190815260200160002060006101000a81548160ff0219169083151502179055508173ffffffffffffffffffffffffffffffffffffffff168373ffffffffffffffffffffffffffffffffffffffff167f17307eab39ab6107e8899845ad3d59bd9653f200f220920489ca2b5937696c318360405161199c9190612bba565b60405180910390a3505050565b6119b4848484611375565b6119c084848484611d00565b6119ff576040517f08c379a00000000000000000000000000000000000000000000000000000000081526004016119f690613e26565b60405180910390fd5b50505050565b6060611a10826111d4565b6000600a60008481526020019081526020016000208054611a30906132c4565b80601f0160208091040260200160405190810160405280929190818152602001828054611a5c906132c4565b8015611aa95780601f10611a7e57610100808354040283529160200191611aa9565b820191906000526020600020905b815481529060010190602001808311611a8c57829003601f168201915b505050505090506000611aba611e87565b90506000815103611acf578192505050611b12565b600082511115611b04578082604051602001611aec929190613e82565b60405160208183030381529060405292505050611b12565b611b0d84611e9e565b925050505b919050565b60007f80ac58cd000000000000000000000000000000000000000000000000000000007bffffffffffffffffffffffffffffffffffffffffffffffffffffffff1916827bffffffffffffffffffffffffffffffffffffffffffffffffffffffff19161480611be257507f5b5e139f000000000000000000000000000000000000000000000000000000007bffffffffffffffffffffffffffffffffffffffffffffffffffffffff1916827bffffffffffffffffffffffffffffffffffffffffffffffffffffffff1916145b80611bf25750611bf182611f06565b5b9050919050565b60008073ffffffffffffffffffffffffffffffffffffffff16611c1b8361172e565b73ffffffffffffffffffffffffffffffffffffffff1614159050919050565b611c4684848484611f70565b50505050565b50505050565b611c5c83836120ce565b611c696000848484611d00565b611ca8576040517f08c379a0000000000000000000000000000000000000000000000000000000008152600401611c9f90613e26565b60405180910390fd5b505050565b611cb6816122eb565b6000600a60008381526020019081526020016000208054611cd6906132c4565b905014611cfd57600a60008281526020019081526020016000206000611cfc9190612aa9565b5b50565b6000611d218473ffffffffffffffffffffffffffffffffffffffff16612439565b15611e7a578373ffffffffffffffffffffffffffffffffffffffff1663150b7a02611d4a61121f565b8786866040518563ffffffff1660e01b8152600401611d6c9493929190613efb565b6020604051808303816000875af1925050508015611da857506040513d601f19601f82011682018060405250810190611da59190613f5c565b60015b611e2a573d8060008114611dd8576040519150601f19603f3d011682016040523d82523d6000602084013e611ddd565b606091505b506000815103611e22576040517f08c379a0000000000000000000000000000000000000000000000000000000008152600401611e1990613e26565b60405180910390fd5b805181602001fd5b63150b7a0260e01b7bffffffffffffffffffffffffffffffffffffffffffffffffffffffff1916817bffffffffffffffffffffffffffffffffffffffffffffffffffffffff191614915050611e7f565b600190505b949350505050565b606060405180602001604052806000815250905090565b6060611ea9826111d4565b6000611eb3611e87565b90506000815111611ed35760405180602001604052806000815250611efe565b80611edd8461245c565b604051602001611eee929190613e82565b6040516020818303038152906040525b915050919050565b60007f01ffc9a7000000000000000000000000000000000000000000000000000000007bffffffffffffffffffffffffffffffffffffffffffffffffffffffff1916827bffffffffffffffffffffffffffffffffffffffffffffffffffffffff1916149050919050565b611f7c8484848461252a565b6001811115611fc0576040517f08c379a0000000000000000000000000000000000000000000000000000000008152600401611fb790613ffb565b60405180910390fd5b6000829050600073ffffffffffffffffffffffffffffffffffffffff168573ffffffffffffffffffffffffffffffffffffffff16036120075761200281612650565b612046565b8373ffffffffffffffffffffffffffffffffffffffff168573ffffffffffffffffffffffffffffffffffffffff1614612045576120448582612699565b5b5b600073ffffffffffffffffffffffffffffffffffffffff168473ffffffffffffffffffffffffffffffffffffffff16036120885761208381612806565b6120c7565b8473ffffffffffffffffffffffffffffffffffffffff168473ffffffffffffffffffffffffffffffffffffffff16146120c6576120c584826128d7565b5b5b5050505050565b600073ffffffffffffffffffffffffffffffffffffffff168273ffffffffffffffffffffffffffffffffffffffff160361213d576040517f08c379a000000000000000000000000000000000000000000000000000000000815260040161213490614067565b60405180910390fd5b61214681611bf9565b15612186576040517f08c379a000000000000000000000000000000000000000000000000000000000815260040161217d906140d3565b60405180910390fd5b612194600083836001611c3a565b61219d81611bf9565b156121dd576040517f08c379a00000000000000000000000000000000000000000000000000000000081526004016121d4906140d3565b60405180910390fd5b6001600360008473ffffffffffffffffffffffffffffffffffffffff1673ffffffffffffffffffffffffffffffffffffffff16815260200190815260200160002060008282540192505081905550816002600083815260200190815260200160002060006101000a81548173ffffffffffffffffffffffffffffffffffffffff021916908373ffffffffffffffffffffffffffffffffffffffff160217905550808273ffffffffffffffffffffffffffffffffffffffff16600073ffffffffffffffffffffffffffffffffffffffff167fddf252ad1be2c89b69c2b068fc378daa952ba7f163c4a11628f55a4df523b3ef60405160405180910390a46122e7600083836001611c4c565b5050565b60006122f682610c17565b9050612306816000846001611c3a565b61230f82610c17565b90506004600083815260200190815260200160002060006101000a81549073ffffffffffffffffffffffffffffffffffffffff02191690556001600360008373ffffffffffffffffffffffffffffffffffffffff1673ffffffffffffffffffffffffffffffffffffffff168152602001908152602001600020600082825403925050819055506002600083815260200190815260200160002060006101000a81549073ffffffffffffffffffffffffffffffffffffffff021916905581600073ffffffffffffffffffffffffffffffffffffffff168273ffffffffffffffffffffffffffffffffffffffff167fddf252ad1be2c89b69c2b068fc378daa952ba7f163c4a11628f55a4df523b3ef60405160405180910390a4612435816000846001611c4c565b5050565b6000808273ffffffffffffffffffffffffffffffffffffffff163b119050919050565b60606000600161246b84612956565b01905060008167ffffffffffffffff81111561248a576124896130a7565b5b6040519080825280601f01601f1916602001820160405280156124bc5781602001600182028036833780820191505090505b509050600082602001820190505b60011561251f578080600190039150507f3031323334353637383961626364656600000000000000000000000000000000600a86061a8153600a8581612513576125126140f3565b5b049450600085036124ca575b819350505050919050565b600181111561264a57600073ffffffffffffffffffffffffffffffffffffffff168473ffffffffffffffffffffffffffffffffffffffff16146125be5780600360008673ffffffffffffffffffffffffffffffffffffffff1673ffffffffffffffffffffffffffffffffffffffff16815260200190815260200160002060008282546125b69190614122565b925050819055505b600073ffffffffffffffffffffffffffffffffffffffff168373ffffffffffffffffffffffffffffffffffffffff16146126495780600360008573ffffffffffffffffffffffffffffffffffffffff1673ffffffffffffffffffffffffffffffffffffffff16815260200190815260200160002060008282546126419190614156565b925050819055505b5b50505050565b6008805490506009600083815260200190815260200160002081905550600881908060018154018082558091505060019003906000526020600020016000909190919091505550565b600060016126a684610c9d565b6126b09190614122565b9050600060076000848152602001908152602001600020549050818114612795576000600660008673ffffffffffffffffffffffffffffffffffffffff1673ffffffffffffffffffffffffffffffffffffffff168152602001908152602001600020600084815260200190815260200160002054905080600660008773ffffffffffffffffffffffffffffffffffffffff1673ffffffffffffffffffffffffffffffffffffffff168152602001908152602001600020600084815260200190815260200160002081905550816007600083815260200190815260200160002081905550505b6007600084815260200190815260200160002060009055600660008573ffffffffffffffffffffffffffffffffffffffff1673ffffffffffffffffffffffffffffffffffffffff16815260200190815260200160002060008381526020019081526020016000206000905550505050565b6000600160088054905061281a9190614122565b905060006009600084815260200190815260200160002054905060006008838154811061284a5761284961353d565b5b90600052602060002001549050806008838154811061286c5761286b61353d565b5b9060005260206000200181905550816009600083815260200190815260200160002081905550600960008581526020019081526020016000206000905560088054806128bb576128ba61418a565b5b6001900381819060005260206000200160009055905550505050565b60006128e283610c9d565b905081600660008573ffffffffffffffffffffffffffffffffffffffff1673ffffffffffffffffffffffffffffffffffffffff168152602001908152602001600020600083815260200190815260200160002081905550806007600084815260200190815260200160002081905550505050565b600080600090507a184f03e93ff9f4daa797ed6e38ed64bf6a1f01000000000000000083106129b4577a184f03e93ff9f4daa797ed6e38ed64bf6a1f01000000000000000083816129aa576129a96140f3565b5b0492506040810190505b6d04ee2d6d415b85acef810000000083106129f1576d04ee2d6d415b85acef810000000083816129e7576129e66140f3565b5b0492506020810190505b662386f26fc100008310612a2057662386f26fc100008381612a1657612a156140f3565b5b0492506010810190505b6305f5e1008310612a49576305f5e1008381612a3f57612a3e6140f3565b5b0492506008810190505b6127108310612a6e576127108381612a6457612a636140f3565b5b0492506004810190505b60648310612a915760648381612a8757612a866140f3565b5b0492506002810190505b600a8310612aa0576001810190505b80915050919050565b508054612ab5906132c4565b6000825580601f10612ac75750612ae6565b601f016020900490600052602060002090810190612ae59190612ae9565b5b50565b5b80821115612b02576000816000905550600101612aea565b5090565b6000604051905090565b600080fd5b600080fd5b60007fffffffff0000000000000000000000000000000000000000000000000000000082169050919050565b612b4f81612b1a565b8114612b5a57600080fd5b50565b600081359050612b6c81612b46565b92915050565b600060208284031215612b8857612b87612b10565b5b6000612b9684828501612b5d565b91505092915050565b60008115159050919050565b612bb481612b9f565b82525050565b6000602082019050612bcf6000830184612bab565b92915050565b600081519050919050565b600082825260208201905092915050565b60005b83811015612c0f578082015181840152602081019050612bf4565b60008484015250505050565b6000601f19601f8301169050919050565b6000612c3782612bd5565b612c418185612be0565b9350612c51818560208601612bf1565b612c5a81612c1b565b840191505092915050565b60006020820190508181036000830152612c7f8184612c2c565b905092915050565b6000819050919050565b612c9a81612c87565b8114612ca557600080fd5b50565b600081359050612cb781612c91565b92915050565b600060208284031215612cd357612cd2612b10565b5b6000612ce184828501612ca8565b91505092915050565b600073ffffffffffffffffffffffffffffffffffffffff82169050919050565b6000612d1582612cea565b9050919050565b612d2581612d0a565b82525050565b6000602082019050612d406000830184612d1c565b92915050565b612d4f81612d0a565b8114612d5a57600080fd5b50565b600081359050612d6c81612d46565b92915050565b60008060408385031215612d8957612d88612b10565b5b6000612d9785828601612d5d565b9250506020612da885828601612ca8565b9150509250929050565b612dbb81612c87565b82525050565b6000602082019050612dd66000830184612db2565b92915050565b600080600060608486031215612df557612df4612b10565b5b6000612e0386828701612d5d565b9350506020612e1486828701612d5d565b9250506040612e2586828701612ca8565b9150509250925092565b600080fd5b600080fd5b600080fd5b60008083601f840112612e5457612e53612e2f565b5b8235905067ffffffffffffffff811115612e7157612e70612e34565b5b602083019150836001820283011115612e8d57612e8c612e39565b5b9250929050565b600080600080600060608688031215612eb057612eaf612b10565b5b600086013567ffffffffffffffff811115612ece57612ecd612b15565b5b612eda88828901612e3e565b9550955050602086013567ffffffffffffffff811115612efd57612efc612b15565b5b612f0988828901612e3e565b93509350506040612f1c88828901612d5d565b9150509295509295909350565b600060208284031215612f3f57612f3e612b10565b5b6000612f4d84828501612d5d565b91505092915050565b600081519050919050565b600082825260208201905092915050565b6000819050602082019050919050565b612f8b81612c87565b82525050565b6000612f9d8383612f82565b60208301905092915050565b6000602082019050919050565b6000612fc182612f56565b612fcb8185612f61565b9350612fd683612f72565b8060005b83811015613007578151612fee8882612f91565b9750612ff983612fa9565b925050600181019050612fda565b5085935050505092915050565b6000602082019050818103600083015261302e8184612fb6565b905092915050565b61303f81612b9f565b811461304a57600080fd5b50565b60008135905061305c81613036565b92915050565b6000806040838503121561307957613078612b10565b5b600061308785828601612d5d565b92505060206130988582860161304d565b9150509250929050565b600080fd5b7f4e487b7100000000000000000000000000000000000000000000000000000000600052604160045260246000fd5b6130df82612c1b565b810181811067ffffffffffffffff821117156130fe576130fd6130a7565b5b80604052505050565b6000613111612b06565b905061311d82826130d6565b919050565b600067ffffffffffffffff82111561313d5761313c6130a7565b5b61314682612c1b565b9050602081019050919050565b82818337600083830152505050565b600061317561317084613122565b613107565b905082815260208101848484011115613191576131906130a2565b5b61319c848285613153565b509392505050565b600082601f8301126131b9576131b8612e2f565b5b81356131c9848260208601613162565b91505092915050565b600080600080608085870312156131ec576131eb612b10565b5b60006131fa87828801612d5d565b945050602061320b87828801612d5d565b935050604061321c87828801612ca8565b925050606085013567ffffffffffffffff81111561323d5761323c612b15565b5b613249878288016131a4565b91505092959194509250565b6000806040838503121561326c5761326b612b10565b5b600061327a85828601612d5d565b925050602061328b85828601612d5d565b9150509250929050565b7f4e487b7100000000000000000000000000000000000000000000000000000000600052602260045260246000fd5b600060028204905060018216806132dc57607f821691505b6020821081036132ef576132ee613295565b5b50919050565b7f4552433732313a20617070726f76616c20746f2063757272656e74206f776e6560008201527f7200000000000000000000000000000000000000000000000000000000000000602082015250565b6000613351602183612be0565b915061335c826132f5565b604082019050919050565b6000602082019050818103600083015261338081613344565b9050919050565b7f4552433732313a20617070726f76652063616c6c6572206973206e6f7420746f60008201527f6b656e206f776e6572206f7220617070726f76656420666f7220616c6c000000602082015250565b60006133e3603d83612be0565b91506133ee82613387565b604082019050919050565b60006020820190508181036000830152613412816133d6565b9050919050565b7f4552433732313a2063616c6c6572206973206e6f7420746f6b656e206f776e6560008201527f72206f7220617070726f76656400000000000000000000000000000000000000602082015250565b6000613475602d83612be0565b915061348082613419565b604082019050919050565b600060208201905081810360008301526134a481613468565b9050919050565b7f455243373231456e756d657261626c653a206f776e657220696e646578206f7560008201527f74206f6620626f756e6473000000000000000000000000000000000000000000602082015250565b6000613507602b83612be0565b9150613512826134ab565b604082019050919050565b60006020820190508181036000830152613536816134fa565b9050919050565b7f4e487b7100000000000000000000000000000000000000000000000000000000600052603260045260246000fd5b7f4e487b7100000000000000000000000000000000000000000000000000000000600052601160045260246000fd5b6000819050919050565b60006135b08261359b565b91507f7fffffffffffffffffffffffffffffffffffffffffffffffffffffffffffffff82036135e2576135e161356c565b5b600182019050919050565b60006135f882612c87565b91507fffffffffffffffffffffffffffffffffffffffffffffffffffffffffffffffff820361362a5761362961356c565b5b600182019050919050565b60006136408261359b565b91507f800000000000000000000000000000000000000000000000000000000000000082036136725761367161356c565b5b600182039050919050565b7f546865206e756d626572206f662073796d70746f6d7320616e64206c6576656c60008201527f7320617265206e6f7420657175616c2e00000000000000000000000000000000602082015250565b60006136d9603083612be0565b91506136e48261367d565b604082019050919050565b60006020820190508181036000830152613708816136cc565b9050919050565b600082905092915050565b60008190508160005260206000209050919050565b60006020601f8301049050919050565b600082821b905092915050565b60006008830261377c7fffffffffffffffffffffffffffffffffffffffffffffffffffffffffffffffff8261373f565b613786868361373f565b95508019841693508086168417925050509392505050565b6000819050919050565b60006137c36137be6137b984612c87565b61379e565b612c87565b9050919050565b6000819050919050565b6137dd836137a8565b6137f16137e9826137ca565b84845461374c565b825550505050565b600090565b6138066137f9565b6138118184846137d4565b505050565b5b818110156138355761382a6000826137fe565b600181019050613817565b5050565b601f82111561387a5761384b8161371a565b6138548461372f565b81016020851015613863578190505b61387761386f8561372f565b830182613816565b50505b505050565b600082821c905092915050565b600061389d6000198460080261387f565b1980831691505092915050565b60006138b6838361388c565b9150826002028217905092915050565b6138d0838361370f565b67ffffffffffffffff8111156138e9576138e86130a7565b5b6138f382546132c4565b6138fe828285613839565b6000601f83116001811461392d576000841561391b578287013590505b61392585826138aa565b86555061398d565b601f19841661393b8661371a565b60005b828110156139635784890135825560018201915060208501945060208101905061393e565b86831015613980578489013561397c601f89168261388c565b8355505b6001600288020188555050505b50505050505050565b7f455243373231456e756d657261626c653a20676c6f62616c20696e646578206f60008201527f7574206f6620626f756e64730000000000000000000000000000000000000000602082015250565b60006139f2602c83612be0565b91506139fd82613996565b604082019050919050565b60006020820190508181036000830152613a21816139e5565b9050919050565b7f4552433732313a20696e76616c696420746f6b656e2049440000000000000000600082015250565b6000613a5e601883612be0565b9150613a6982613a28565b602082019050919050565b60006020820190508181036000830152613a8d81613a51565b9050919050565b7f4552433732313a2061646472657373207a65726f206973206e6f74206120766160008201527f6c6964206f776e65720000000000000000000000000000000000000000000000602082015250565b6000613af0602983612be0565b9150613afb82613a94565b604082019050919050565b60006020820190508181036000830152613b1f81613ae3565b9050919050565b7f4f776e61626c653a206e6577206f776e657220697320746865207a65726f206160008201527f6464726573730000000000000000000000000000000000000000000000000000602082015250565b6000613b82602683612be0565b9150613b8d82613b26565b604082019050919050565b60006020820190508181036000830152613bb181613b75565b9050919050565b7f4552433732313a207472616e736665722066726f6d20696e636f72726563742060008201527f6f776e6572000000000000000000000000000000000000000000000000000000602082015250565b6000613c14602583612be0565b9150613c1f82613bb8565b604082019050919050565b60006020820190508181036000830152613c4381613c07565b9050919050565b7f4552433732313a207472616e7366657220746f20746865207a65726f2061646460008201527f7265737300000000000000000000000000000000000000000000000000000000602082015250565b6000613ca6602483612be0565b9150613cb182613c4a565b604082019050919050565b60006020820190508181036000830152613cd581613c99565b9050919050565b7f4f776e61626c653a2063616c6c6572206973206e6f7420746865206f776e6572600082015250565b6000613d12602083612be0565b9150613d1d82613cdc565b602082019050919050565b60006020820190508181036000830152613d4181613d05565b9050919050565b7f4552433732313a20617070726f766520746f2063616c6c657200000000000000600082015250565b6000613d7e601983612be0565b9150613d8982613d48565b602082019050919050565b60006020820190508181036000830152613dad81613d71565b9050919050565b7f4552433732313a207472616e7366657220746f206e6f6e20455243373231526560008201527f63656976657220696d706c656d656e7465720000000000000000000000000000602082015250565b6000613e10603283612be0565b9150613e1b82613db4565b604082019050919050565b60006020820190508181036000830152613e3f81613e03565b9050919050565b600081905092915050565b6000613e5c82612bd5565b613e668185613e46565b9350613e76818560208601612bf1565b80840191505092915050565b6000613e8e8285613e51565b9150613e9a8284613e51565b91508190509392505050565b600081519050919050565b600082825260208201905092915050565b6000613ecd82613ea6565b613ed78185613eb1565b9350613ee7818560208601612bf1565b613ef081612c1b565b840191505092915050565b6000608082019050613f106000830187612d1c565b613f1d6020830186612d1c565b613f2a6040830185612db2565b8181036060830152613f3c8184613ec2565b905095945050505050565b600081519050613f5681612b46565b92915050565b600060208284031215613f7257613f71612b10565b5b6000613f8084828501613f47565b91505092915050565b7f455243373231456e756d657261626c653a20636f6e736563757469766520747260008201527f616e7366657273206e6f7420737570706f727465640000000000000000000000602082015250565b6000613fe5603583612be0565b9150613ff082613f89565b604082019050919050565b6000602082019050818103600083015261401481613fd8565b9050919050565b7f4552433732313a206d696e7420746f20746865207a65726f2061646472657373600082015250565b6000614051602083612be0565b915061405c8261401b565b602082019050919050565b6000602082019050818103600083015261408081614044565b9050919050565b7f4552433732313a20746f6b656e20616c7265616479206d696e74656400000000600082015250565b60006140bd601c83612be0565b91506140c882614087565b602082019050919050565b600060208201905081810360008301526140ec816140b0565b9050919050565b7f4e487b7100000000000000000000000000000000000000000000000000000000600052601260045260246000fd5b600061412d82612c87565b915061413883612c87565b92508282039050818111156141505761414f61356c565b5b92915050565b600061416182612c87565b915061416c83612c87565b92508282019050808211156141845761418361356c565b5b92915050565b7f4e487b7100000000000000000000000000000000000000000000000000000000600052603160045260246000fdfea26469706673582212209f1de8072f11fc4aee44045f5d77c78480b148e708fa370b94c144ff4e46b44164736f6c63430008110033",
  "immutableReferences": {},
  "source": "// SPDX-License-Identifier: MIT\n// // from \"https://github.com/OpenZeppelin/openzeppelin-contracts/blob/master/contracts/token/ERC721/ERC721.sol\";\n// import \"./ERC721.sol\";\n// // from \"https://github.com/OpenZeppelin/openzeppelin-contracts/blob/master/contracts/access/Ownable.sol\";\n// import \"./Ownable.sol\";\npragma solidity ^0.8.9;\nimport \"@openzeppelin/contracts/token/ERC721/ERC721.sol\";\nimport \"@openzeppelin/contracts/token/ERC721/extensions/ERC721Enumerable.sol\";\nimport \"@openzeppelin/contracts/token/ERC721/extensions/ERC721URIStorage.sol\";\nimport \"@openzeppelin/contracts/access/Ownable.sol\";\nimport \"@openzeppelin/contracts/utils/Counters.sol\";\nimport \"./I_MedicalCertificate.sol\";\ncontract MedicalCertificate is ERC721, ERC721Enumerable, ERC721URIStorage, Ownable, I_MedicalCertificate{\n    using Counters for Counters.Counter;\n    Counters.Counter private _idCounter;\n    mapping (uint256 => string) private symptomsStorage;\n    mapping (uint256 => string) private levelsStorage;\n \n    constructor() ERC721(\"MedicalCertificate\", \"MC\") {}\n    function addCertificate(string calldata symptoms, string calldata levels, address patient) external onlyOwner{\n        bytes memory comaBytes = bytes(\",\");\n        bytes memory symptomsBytes = bytes(symptoms);\n        bytes memory levelsBytes = bytes(levels);\n        int256 commaCount = 0;\n        for(uint256 i=0; i<symptomsBytes.length; i++){\n            if(symptomsBytes[i] == comaBytes[0]){\n                commaCount++;\n            }\n        }\n        for(uint256 i=0; i<levelsBytes.length; i++){\n            if(levelsBytes[i] == comaBytes[0]){\n                commaCount--;\n            }\n        }\n        require(commaCount == 0, \"The number of symptoms and levels are not equal.\");\n        uint256 id = _idCounter.current();\n        _idCounter.increment();\n        _safeMint(patient, id);\n        symptomsStorage[id] = symptoms;\n        levelsStorage[id] = levels;\n    }\n    function getSymptoms(uint256 id) external view returns(string memory symptoms){\n        return symptomsStorage[id];\n    }\n    function getLevels(uint256 id) external view returns(string memory levels){\n        return levelsStorage[id];\n    }\n    function listCertificatesIdOfAddress(address _address) external view returns(uint256[] memory certificateIds){\n        uint256 numberOfCertificates = balanceOf(_address);\n        uint256[] memory ret = new uint256[](numberOfCertificates);\n        for(uint256 i=0; i<numberOfCertificates; i++){\n            ret[i] = tokenOfOwnerByIndex(_address, i);\n        }\n        return ret;\n    }\n    function cleanAllCertificate(address patient) external onlyOwner{\n        uint256 numberOfCertificates = balanceOf(patient);\n        for(uint256 i=0; i<numberOfCertificates; i++){\n            _burn(tokenOfOwnerByIndex(patient, 0));\n        }\n    }\n\n\n    function _beforeTokenTransfer(address from, address to, uint256 firstTokenId, uint256 batchSize) internal override(ERC721, ERC721Enumerable) {ERC721Enumerable._beforeTokenTransfer(from, to, firstTokenId, batchSize);}\n    function _burn(uint256 tokenId) internal override(ERC721, ERC721URIStorage){ERC721URIStorage._burn(tokenId);}\n    function supportsInterface(bytes4 interfaceId) public view override(ERC721, ERC721Enumerable) returns (bool){return ERC721Enumerable.supportsInterface(interfaceId);}\n    function tokenURI(uint256 tokenId) public view override(ERC721, ERC721URIStorage) returns (string memory){return ERC721URIStorage.tokenURI(tokenId);}\n    \n}",
  "sourcePath": "/home/danielchang/SoftwareEngineer/medical-certificate-smart-contract/contracts/MedicalCertificate_ERC721.sol",
  "compiler": {
    "name": "solc",
    "version": "0.8.17+commit.8df45f5f.Emscripten.clang"
  },
  "schemaVersion": "3.4.11",
  "updatedAt": "2022-12-10T15:51:25.524Z",
  "devdoc": {
    "kind": "dev",
    "methods": {
      "approve(address,uint256)": {
        "details": "See {IERC721-approve}."
      },
      "balanceOf(address)": {
        "details": "See {IERC721-balanceOf}."
      },
      "getApproved(uint256)": {
        "details": "See {IERC721-getApproved}."
      },
      "isApprovedForAll(address,address)": {
        "details": "See {IERC721-isApprovedForAll}."
      },
      "name()": {
        "details": "See {IERC721Metadata-name}."
      },
      "owner()": {
        "details": "Returns the address of the current owner."
      },
      "ownerOf(uint256)": {
        "details": "See {IERC721-ownerOf}."
      },
      "renounceOwnership()": {
        "details": "Leaves the contract without owner. It will not be possible to call `onlyOwner` functions anymore. Can only be called by the current owner. NOTE: Renouncing ownership will leave the contract without an owner, thereby removing any functionality that is only available to the owner."
      },
      "safeTransferFrom(address,address,uint256)": {
        "details": "See {IERC721-safeTransferFrom}."
      },
      "safeTransferFrom(address,address,uint256,bytes)": {
        "details": "See {IERC721-safeTransferFrom}."
      },
      "setApprovalForAll(address,bool)": {
        "details": "See {IERC721-setApprovalForAll}."
      },
      "symbol()": {
        "details": "See {IERC721Metadata-symbol}."
      },
      "tokenByIndex(uint256)": {
        "details": "See {IERC721Enumerable-tokenByIndex}."
      },
      "tokenOfOwnerByIndex(address,uint256)": {
        "details": "See {IERC721Enumerable-tokenOfOwnerByIndex}."
      },
      "totalSupply()": {
        "details": "See {IERC721Enumerable-totalSupply}."
      },
      "transferFrom(address,address,uint256)": {
        "details": "See {IERC721-transferFrom}."
      },
      "transferOwnership(address)": {
        "details": "Transfers ownership of the contract to a new account (`newOwner`). Can only be called by the current owner."
      }
    },
    "version": 1
  },
  "userdoc": {
    "kind": "user",
    "methods": {},
    "version": 1
  }
}