{
  "contractName": "MedicalCertificate",
  "abi": [
    {
      "inputs": [],
      "stateMutability": "nonpayable",
      "type": "constructor"
    },
    {
      "anonymous": false,
      "inputs": [
        {
          "indexed": true,
          "internalType": "address",
          "name": "owner",
          "type": "address"
        },
        {
          "indexed": true,
          "internalType": "address",
          "name": "approved",
          "type": "address"
        },
        {
          "indexed": true,
          "internalType": "uint256",
          "name": "tokenId",
          "type": "uint256"
        }
      ],
      "name": "Approval",
      "type": "event"
    },
    {
      "anonymous": false,
      "inputs": [
        {
          "indexed": true,
          "internalType": "address",
          "name": "owner",
          "type": "address"
        },
        {
          "indexed": true,
          "internalType": "address",
          "name": "operator",
          "type": "address"
        },
        {
          "indexed": false,
          "internalType": "bool",
          "name": "approved",
          "type": "bool"
        }
      ],
      "name": "ApprovalForAll",
      "type": "event"
    },
    {
      "anonymous": false,
      "inputs": [
        {
          "indexed": true,
          "internalType": "address",
          "name": "previousOwner",
          "type": "address"
        },
        {
          "indexed": true,
          "internalType": "address",
          "name": "newOwner",
          "type": "address"
        }
      ],
      "name": "OwnershipTransferred",
      "type": "event"
    },
    {
      "anonymous": false,
      "inputs": [
        {
          "indexed": true,
          "internalType": "address",
          "name": "from",
          "type": "address"
        },
        {
          "indexed": true,
          "internalType": "address",
          "name": "to",
          "type": "address"
        },
        {
          "indexed": true,
          "internalType": "uint256",
          "name": "tokenId",
          "type": "uint256"
        }
      ],
      "name": "Transfer",
      "type": "event"
    },
    {
      "inputs": [
        {
          "internalType": "address",
          "name": "to",
          "type": "address"
        },
        {
          "internalType": "uint256",
          "name": "tokenId",
          "type": "uint256"
        }
      ],
      "name": "approve",
      "outputs": [],
      "stateMutability": "nonpayable",
      "type": "function"
    },
    {
      "inputs": [
        {
          "internalType": "address",
          "name": "owner",
          "type": "address"
        }
      ],
      "name": "balanceOf",
      "outputs": [
        {
          "internalType": "uint256",
          "name": "",
          "type": "uint256"
        }
      ],
      "stateMutability": "view",
      "type": "function"
    },
    {
      "inputs": [
        {
          "internalType": "uint256",
          "name": "tokenId",
          "type": "uint256"
        }
      ],
      "name": "getApproved",
      "outputs": [
        {
          "internalType": "address",
          "name": "",
          "type": "address"
        }
      ],
      "stateMutability": "view",
      "type": "function"
    },
    {
      "inputs": [
        {
          "internalType": "address",
          "name": "owner",
          "type": "address"
        },
        {
          "internalType": "address",
          "name": "operator",
          "type": "address"
        }
      ],
      "name": "isApprovedForAll",
      "outputs": [
        {
          "internalType": "bool",
          "name": "",
          "type": "bool"
        }
      ],
      "stateMutability": "view",
      "type": "function"
    },
    {
      "inputs": [],
      "name": "name",
      "outputs": [
        {
          "internalType": "string",
          "name": "",
          "type": "string"
        }
      ],
      "stateMutability": "view",
      "type": "function"
    },
    {
      "inputs": [],
      "name": "owner",
      "outputs": [
        {
          "internalType": "address",
          "name": "",
          "type": "address"
        }
      ],
      "stateMutability": "view",
      "type": "function"
    },
    {
      "inputs": [
        {
          "internalType": "uint256",
          "name": "tokenId",
          "type": "uint256"
        }
      ],
      "name": "ownerOf",
      "outputs": [
        {
          "internalType": "address",
          "name": "",
          "type": "address"
        }
      ],
      "stateMutability": "view",
      "type": "function"
    },
    {
      "inputs": [],
      "name": "renounceOwnership",
      "outputs": [],
      "stateMutability": "nonpayable",
      "type": "function"
    },
    {
      "inputs": [
        {
          "internalType": "address",
          "name": "from",
          "type": "address"
        },
        {
          "internalType": "address",
          "name": "to",
          "type": "address"
        },
        {
          "internalType": "uint256",
          "name": "tokenId",
          "type": "uint256"
        }
      ],
      "name": "safeTransferFrom",
      "outputs": [],
      "stateMutability": "nonpayable",
      "type": "function"
    },
    {
      "inputs": [
        {
          "internalType": "address",
          "name": "from",
          "type": "address"
        },
        {
          "internalType": "address",
          "name": "to",
          "type": "address"
        },
        {
          "internalType": "uint256",
          "name": "tokenId",
          "type": "uint256"
        },
        {
          "internalType": "bytes",
          "name": "data",
          "type": "bytes"
        }
      ],
      "name": "safeTransferFrom",
      "outputs": [],
      "stateMutability": "nonpayable",
      "type": "function"
    },
    {
      "inputs": [
        {
          "internalType": "address",
          "name": "operator",
          "type": "address"
        },
        {
          "internalType": "bool",
          "name": "approved",
          "type": "bool"
        }
      ],
      "name": "setApprovalForAll",
      "outputs": [],
      "stateMutability": "nonpayable",
      "type": "function"
    },
    {
      "inputs": [],
      "name": "symbol",
      "outputs": [
        {
          "internalType": "string",
          "name": "",
          "type": "string"
        }
      ],
      "stateMutability": "view",
      "type": "function"
    },
    {
      "inputs": [
        {
          "internalType": "uint256",
          "name": "index",
          "type": "uint256"
        }
      ],
      "name": "tokenByIndex",
      "outputs": [
        {
          "internalType": "uint256",
          "name": "",
          "type": "uint256"
        }
      ],
      "stateMutability": "view",
      "type": "function"
    },
    {
      "inputs": [
        {
          "internalType": "address",
          "name": "owner",
          "type": "address"
        },
        {
          "internalType": "uint256",
          "name": "index",
          "type": "uint256"
        }
      ],
      "name": "tokenOfOwnerByIndex",
      "outputs": [
        {
          "internalType": "uint256",
          "name": "",
          "type": "uint256"
        }
      ],
      "stateMutability": "view",
      "type": "function"
    },
    {
      "inputs": [],
      "name": "totalSupply",
      "outputs": [
        {
          "internalType": "uint256",
          "name": "",
          "type": "uint256"
        }
      ],
      "stateMutability": "view",
      "type": "function"
    },
    {
      "inputs": [
        {
          "internalType": "address",
          "name": "from",
          "type": "address"
        },
        {
          "internalType": "address",
          "name": "to",
          "type": "address"
        },
        {
          "internalType": "uint256",
          "name": "tokenId",
          "type": "uint256"
        }
      ],
      "name": "transferFrom",
      "outputs": [],
      "stateMutability": "nonpayable",
      "type": "function"
    },
    {
      "inputs": [
        {
          "internalType": "address",
          "name": "newOwner",
          "type": "address"
        }
      ],
      "name": "transferOwnership",
      "outputs": [],
      "stateMutability": "nonpayable",
      "type": "function"
    },
    {
      "inputs": [
        {
          "internalType": "string",
          "name": "symptoms",
          "type": "string"
        },
        {
          "internalType": "string",
          "name": "levels",
          "type": "string"
        },
        {
          "internalType": "address",
          "name": "patient",
          "type": "address"
        }
      ],
      "name": "addCertificate",
      "outputs": [],
      "stateMutability": "nonpayable",
      "type": "function"
    },
    {
      "inputs": [
        {
          "internalType": "uint256",
          "name": "id",
          "type": "uint256"
        }
      ],
      "name": "getSymptoms",
      "outputs": [
        {
          "internalType": "string",
          "name": "symptoms",
          "type": "string"
        }
      ],
      "stateMutability": "view",
      "type": "function"
    },
    {
      "inputs": [
        {
          "internalType": "uint256",
          "name": "id",
          "type": "uint256"
        }
      ],
      "name": "getLevels",
      "outputs": [
        {
          "internalType": "string",
          "name": "levels",
          "type": "string"
        }
      ],
      "stateMutability": "view",
      "type": "function"
    },
    {
      "inputs": [
        {
          "internalType": "address",
          "name": "_address",
          "type": "address"
        }
      ],
      "name": "listCertificatesIdOfAddress",
      "outputs": [
        {
          "internalType": "uint256[]",
          "name": "certificateIds",
          "type": "uint256[]"
        }
      ],
      "stateMutability": "view",
      "type": "function"
    },
    {
      "inputs": [
        {
          "internalType": "bytes4",
          "name": "interfaceId",
          "type": "bytes4"
        }
      ],
      "name": "supportsInterface",
      "outputs": [
        {
          "internalType": "bool",
          "name": "",
          "type": "bool"
        }
      ],
      "stateMutability": "view",
      "type": "function"
    },
    {
      "inputs": [
        {
          "internalType": "uint256",
          "name": "tokenId",
          "type": "uint256"
        }
      ],
      "name": "tokenURI",
      "outputs": [
        {
          "internalType": "string",
          "name": "",
          "type": "string"
        }
      ],
      "stateMutability": "view",
      "type": "function"
    }
  ],
  "bytecode": "0x60806040523480156200001157600080fd5b506040518060400160405280601281526020017f4d65646963616c436572746966696361746500000000000000000000000000008152506040518060400160405280600281526020017f4d4300000000000000000000000000000000000000000000000000000000000081525081600090816200008f919062000412565b508060019081620000a1919062000412565b505050620000c4620000b8620000ca60201b60201c565b620000d260201b60201c565b620004f9565b600033905090565b6000600b60009054906101000a900473ffffffffffffffffffffffffffffffffffffffff16905081600b60006101000a81548173ffffffffffffffffffffffffffffffffffffffff021916908373ffffffffffffffffffffffffffffffffffffffff1602179055508173ffffffffffffffffffffffffffffffffffffffff168173ffffffffffffffffffffffffffffffffffffffff167f8be0079c531659141344cd1fd0a4f28419497f9722a3daafe3b4186f6b6457e060405160405180910390a35050565b600081519050919050565b7f4e487b7100000000000000000000000000000000000000000000000000000000600052604160045260246000fd5b7f4e487b7100000000000000000000000000000000000000000000000000000000600052602260045260246000fd5b600060028204905060018216806200021a57607f821691505b60208210810362000230576200022f620001d2565b5b50919050565b60008190508160005260206000209050919050565b60006020601f8301049050919050565b600082821b905092915050565b6000600883026200029a7fffffffffffffffffffffffffffffffffffffffffffffffffffffffffffffffff826200025b565b620002a686836200025b565b95508019841693508086168417925050509392505050565b6000819050919050565b6000819050919050565b6000620002f3620002ed620002e784620002be565b620002c8565b620002be565b9050919050565b6000819050919050565b6200030f83620002d2565b620003276200031e82620002fa565b84845462000268565b825550505050565b600090565b6200033e6200032f565b6200034b81848462000304565b505050565b5b8181101562000373576200036760008262000334565b60018101905062000351565b5050565b601f821115620003c2576200038c8162000236565b62000397846200024b565b81016020851015620003a7578190505b620003bf620003b6856200024b565b83018262000350565b50505b505050565b600082821c905092915050565b6000620003e760001984600802620003c7565b1980831691505092915050565b6000620004028383620003d4565b9150826002028217905092915050565b6200041d8262000198565b67ffffffffffffffff811115620004395762000438620001a3565b5b62000445825462000201565b6200045282828562000377565b600060209050601f8311600181146200048a576000841562000475578287015190505b620004818582620003f4565b865550620004f1565b601f1984166200049a8662000236565b60005b82811015620004c4578489015182556001820191506020850194506020810190506200049d565b86831015620004e45784890151620004e0601f891682620003d4565b8355505b6001600288020188555050505b505050505050565b613bc180620005096000396000f3fe608060405234801561001057600080fd5b506004361061014d5760003560e01c80636352211e116100c3578063b30646661161007c578063b3064666146103b0578063b88d4fde146103e0578063c87b56dd146103fc578063e985e9c51461042c578063f2fde38b1461045c578063f43785f9146104785761014d565b80636352211e146102ee57806370a082311461031e578063715018a61461034e5780638da5cb5b1461035857806395d89b4114610376578063a22cb465146103945761014d565b806323b872dd1161011557806323b872dd1461020a5780632f745c5914610226578063362846dc1461025657806342842e0e146102725780634f6ccce71461028e5780635e19e975146102be5761014d565b806301ffc9a71461015257806306fdde0314610182578063081812fc146101a0578063095ea7b3146101d057806318160ddd146101ec575b600080fd5b61016c60048036038101906101679190612670565b6104a8565b60405161017991906126b8565b60405180910390f35b61018a6104ba565b6040516101979190612763565b60405180910390f35b6101ba60048036038101906101b591906127bb565b61054c565b6040516101c79190612829565b60405180910390f35b6101ea60048036038101906101e59190612870565b610592565b005b6101f46106a9565b60405161020191906128bf565b60405180910390f35b610224600480360381019061021f91906128da565b6106b6565b005b610240600480360381019061023b9190612870565b610716565b60405161024d91906128bf565b60405180910390f35b610270600480360381019061026b9190612992565b6107bb565b005b61028c600480360381019061028791906128da565b61082b565b005b6102a860048036038101906102a391906127bb565b61084b565b6040516102b591906128bf565b60405180910390f35b6102d860048036038101906102d39190612a27565b6108bc565b6040516102e59190612b12565b60405180910390f35b610308600480360381019061030391906127bb565b61096a565b6040516103159190612829565b60405180910390f35b61033860048036038101906103339190612a27565b6109f0565b60405161034591906128bf565b60405180910390f35b610356610aa7565b005b610360610abb565b60405161036d9190612829565b60405180910390f35b61037e610ae5565b60405161038b9190612763565b60405180910390f35b6103ae60048036038101906103a99190612b60565b610b77565b005b6103ca60048036038101906103c591906127bb565b610b8d565b6040516103d79190612763565b60405180910390f35b6103fa60048036038101906103f59190612cd0565b610c32565b005b610416600480360381019061041191906127bb565b610c94565b6040516104239190612763565b60405180910390f35b61044660048036038101906104419190612d53565b610ca6565b60405161045391906126b8565b60405180910390f35b61047660048036038101906104719190612a27565b610d3a565b005b610492600480360381019061048d91906127bb565b610dbd565b60405161049f9190612763565b60405180910390f35b60006104b382610e62565b9050919050565b6060600080546104c990612dc2565b80601f01602080910402602001604051908101604052809291908181526020018280546104f590612dc2565b80156105425780601f1061051757610100808354040283529160200191610542565b820191906000526020600020905b81548152906001019060200180831161052557829003601f168201915b5050505050905090565b600061055782610edc565b6004600083815260200190815260200160002060009054906101000a900473ffffffffffffffffffffffffffffffffffffffff169050919050565b600061059d8261096a565b90508073ffffffffffffffffffffffffffffffffffffffff168373ffffffffffffffffffffffffffffffffffffffff160361060d576040517f08c379a000000000000000000000000000000000000000000000000000000000815260040161060490612e65565b60405180910390fd5b8073ffffffffffffffffffffffffffffffffffffffff1661062c610f27565b73ffffffffffffffffffffffffffffffffffffffff16148061065b575061065a81610655610f27565b610ca6565b5b61069a576040517f08c379a000000000000000000000000000000000000000000000000000000000815260040161069190612ef7565b60405180910390fd5b6106a48383610f2f565b505050565b6000600880549050905090565b6106c76106c1610f27565b82610fe8565b610706576040517f08c379a00000000000000000000000000000000000000000000000000000000081526004016106fd90612f89565b60405180910390fd5b61071183838361107d565b505050565b6000610721836109f0565b8210610762576040517f08c379a00000000000000000000000000000000000000000000000000000000081526004016107599061301b565b60405180910390fd5b600660008473ffffffffffffffffffffffffffffffffffffffff1673ffffffffffffffffffffffffffffffffffffffff168152602001908152602001600020600083815260200190815260200160002054905092915050565b60006107c7600c611376565b90506107d3600c611384565b6107dd828261139a565b8585600d600084815260200190815260200160002091826107ff9291906131f2565b508383600e600084815260200190815260200160002091826108229291906131f2565b50505050505050565b61084683838360405180602001604052806000815250610c32565b505050565b60006108556106a9565b8210610896576040517f08c379a000000000000000000000000000000000000000000000000000000000815260040161088d90613334565b60405180910390fd5b600882815481106108aa576108a9613354565b5b90600052602060002001549050919050565b606060006108c9836109f0565b905060008167ffffffffffffffff8111156108e7576108e6612ba5565b5b6040519080825280602002602001820160405280156109155781602001602082028036833780820191505090505b50905060005b8281101561095f5761092d8582610716565b8282815181106109405761093f613354565b5b6020026020010181815250508080610957906133b2565b91505061091b565b508092505050919050565b600080610976836113b8565b9050600073ffffffffffffffffffffffffffffffffffffffff168173ffffffffffffffffffffffffffffffffffffffff16036109e7576040517f08c379a00000000000000000000000000000000000000000000000000000000081526004016109de90613446565b60405180910390fd5b80915050919050565b60008073ffffffffffffffffffffffffffffffffffffffff168273ffffffffffffffffffffffffffffffffffffffff1603610a60576040517f08c379a0000000000000000000000000000000000000000000000000000000008152600401610a57906134d8565b60405180910390fd5b600360008373ffffffffffffffffffffffffffffffffffffffff1673ffffffffffffffffffffffffffffffffffffffff168152602001908152602001600020549050919050565b610aaf6113f5565b610ab96000611473565b565b6000600b60009054906101000a900473ffffffffffffffffffffffffffffffffffffffff16905090565b606060018054610af490612dc2565b80601f0160208091040260200160405190810160405280929190818152602001828054610b2090612dc2565b8015610b6d5780601f10610b4257610100808354040283529160200191610b6d565b820191906000526020600020905b815481529060010190602001808311610b5057829003601f168201915b5050505050905090565b610b89610b82610f27565b8383611539565b5050565b6060600d60008381526020019081526020016000208054610bad90612dc2565b80601f0160208091040260200160405190810160405280929190818152602001828054610bd990612dc2565b8015610c265780601f10610bfb57610100808354040283529160200191610c26565b820191906000526020600020905b815481529060010190602001808311610c0957829003601f168201915b50505050509050919050565b610c43610c3d610f27565b83610fe8565b610c82576040517f08c379a0000000000000000000000000000000000000000000000000000000008152600401610c7990612f89565b60405180910390fd5b610c8e848484846116a5565b50505050565b6060610c9f82611701565b9050919050565b6000600560008473ffffffffffffffffffffffffffffffffffffffff1673ffffffffffffffffffffffffffffffffffffffff16815260200190815260200160002060008373ffffffffffffffffffffffffffffffffffffffff1673ffffffffffffffffffffffffffffffffffffffff16815260200190815260200160002060009054906101000a900460ff16905092915050565b610d426113f5565b600073ffffffffffffffffffffffffffffffffffffffff168173ffffffffffffffffffffffffffffffffffffffff1603610db1576040517f08c379a0000000000000000000000000000000000000000000000000000000008152600401610da89061356a565b60405180910390fd5b610dba81611473565b50565b6060600e60008381526020019081526020016000208054610ddd90612dc2565b80601f0160208091040260200160405190810160405280929190818152602001828054610e0990612dc2565b8015610e565780601f10610e2b57610100808354040283529160200191610e56565b820191906000526020600020905b815481529060010190602001808311610e3957829003601f168201915b50505050509050919050565b60007f780e9d63000000000000000000000000000000000000000000000000000000007bffffffffffffffffffffffffffffffffffffffffffffffffffffffff1916827bffffffffffffffffffffffffffffffffffffffffffffffffffffffff19161480610ed55750610ed482611813565b5b9050919050565b610ee5816118f5565b610f24576040517f08c379a0000000000000000000000000000000000000000000000000000000008152600401610f1b90613446565b60405180910390fd5b50565b600033905090565b816004600083815260200190815260200160002060006101000a81548173ffffffffffffffffffffffffffffffffffffffff021916908373ffffffffffffffffffffffffffffffffffffffff160217905550808273ffffffffffffffffffffffffffffffffffffffff16610fa28361096a565b73ffffffffffffffffffffffffffffffffffffffff167f8c5be1e5ebec7d5bd14f71427d1e84f3dd0314c0f7b2291e5b200ac8c7c3b92560405160405180910390a45050565b600080610ff48361096a565b90508073ffffffffffffffffffffffffffffffffffffffff168473ffffffffffffffffffffffffffffffffffffffff16148061103657506110358185610ca6565b5b8061107457508373ffffffffffffffffffffffffffffffffffffffff1661105c8461054c565b73ffffffffffffffffffffffffffffffffffffffff16145b91505092915050565b8273ffffffffffffffffffffffffffffffffffffffff1661109d8261096a565b73ffffffffffffffffffffffffffffffffffffffff16146110f3576040517f08c379a00000000000000000000000000000000000000000000000000000000081526004016110ea906135fc565b60405180910390fd5b600073ffffffffffffffffffffffffffffffffffffffff168273ffffffffffffffffffffffffffffffffffffffff1603611162576040517f08c379a00000000000000000000000000000000000000000000000000000000081526004016111599061368e565b60405180910390fd5b61116f8383836001611936565b8273ffffffffffffffffffffffffffffffffffffffff1661118f8261096a565b73ffffffffffffffffffffffffffffffffffffffff16146111e5576040517f08c379a00000000000000000000000000000000000000000000000000000000081526004016111dc906135fc565b60405180910390fd5b6004600082815260200190815260200160002060006101000a81549073ffffffffffffffffffffffffffffffffffffffff02191690556001600360008573ffffffffffffffffffffffffffffffffffffffff1673ffffffffffffffffffffffffffffffffffffffff168152602001908152602001600020600082825403925050819055506001600360008473ffffffffffffffffffffffffffffffffffffffff1673ffffffffffffffffffffffffffffffffffffffff16815260200190815260200160002060008282540192505081905550816002600083815260200190815260200160002060006101000a81548173ffffffffffffffffffffffffffffffffffffffff021916908373ffffffffffffffffffffffffffffffffffffffff160217905550808273ffffffffffffffffffffffffffffffffffffffff168473ffffffffffffffffffffffffffffffffffffffff167fddf252ad1be2c89b69c2b068fc378daa952ba7f163c4a11628f55a4df523b3ef60405160405180910390a46113718383836001611948565b505050565b600081600001549050919050565b6001816000016000828254019250508190555050565b6113b482826040518060200160405280600081525061194e565b5050565b60006002600083815260200190815260200160002060009054906101000a900473ffffffffffffffffffffffffffffffffffffffff169050919050565b6113fd610f27565b73ffffffffffffffffffffffffffffffffffffffff1661141b610abb565b73ffffffffffffffffffffffffffffffffffffffff1614611471576040517f08c379a0000000000000000000000000000000000000000000000000000000008152600401611468906136fa565b60405180910390fd5b565b6000600b60009054906101000a900473ffffffffffffffffffffffffffffffffffffffff16905081600b60006101000a81548173ffffffffffffffffffffffffffffffffffffffff021916908373ffffffffffffffffffffffffffffffffffffffff1602179055508173ffffffffffffffffffffffffffffffffffffffff168173ffffffffffffffffffffffffffffffffffffffff167f8be0079c531659141344cd1fd0a4f28419497f9722a3daafe3b4186f6b6457e060405160405180910390a35050565b8173ffffffffffffffffffffffffffffffffffffffff168373ffffffffffffffffffffffffffffffffffffffff16036115a7576040517f08c379a000000000000000000000000000000000000000000000000000000000815260040161159e90613766565b60405180910390fd5b80600560008573ffffffffffffffffffffffffffffffffffffffff1673ffffffffffffffffffffffffffffffffffffffff16815260200190815260200160002060008473ffffffffffffffffffffffffffffffffffffffff1673ffffffffffffffffffffffffffffffffffffffff16815260200190815260200160002060006101000a81548160ff0219169083151502179055508173ffffffffffffffffffffffffffffffffffffffff168373ffffffffffffffffffffffffffffffffffffffff167f17307eab39ab6107e8899845ad3d59bd9653f200f220920489ca2b5937696c318360405161169891906126b8565b60405180910390a3505050565b6116b084848461107d565b6116bc848484846119a9565b6116fb576040517f08c379a00000000000000000000000000000000000000000000000000000000081526004016116f2906137f8565b60405180910390fd5b50505050565b606061170c82610edc565b6000600a6000848152602001908152602001600020805461172c90612dc2565b80601f016020809104026020016040519081016040528092919081815260200182805461175890612dc2565b80156117a55780601f1061177a576101008083540402835291602001916117a5565b820191906000526020600020905b81548152906001019060200180831161178857829003601f168201915b5050505050905060006117b6611b30565b905060008151036117cb57819250505061180e565b6000825111156118005780826040516020016117e8929190613854565b6040516020818303038152906040529250505061180e565b61180984611b47565b925050505b919050565b60007f80ac58cd000000000000000000000000000000000000000000000000000000007bffffffffffffffffffffffffffffffffffffffffffffffffffffffff1916827bffffffffffffffffffffffffffffffffffffffffffffffffffffffff191614806118de57507f5b5e139f000000000000000000000000000000000000000000000000000000007bffffffffffffffffffffffffffffffffffffffffffffffffffffffff1916827bffffffffffffffffffffffffffffffffffffffffffffffffffffffff1916145b806118ee57506118ed82611baf565b5b9050919050565b60008073ffffffffffffffffffffffffffffffffffffffff16611917836113b8565b73ffffffffffffffffffffffffffffffffffffffff1614159050919050565b61194284848484611c19565b50505050565b50505050565b6119588383611d77565b61196560008484846119a9565b6119a4576040517f08c379a000000000000000000000000000000000000000000000000000000000815260040161199b906137f8565b60405180910390fd5b505050565b60006119ca8473ffffffffffffffffffffffffffffffffffffffff16611f94565b15611b23578373ffffffffffffffffffffffffffffffffffffffff1663150b7a026119f3610f27565b8786866040518563ffffffff1660e01b8152600401611a1594939291906138cd565b6020604051808303816000875af1925050508015611a5157506040513d601f19601f82011682018060405250810190611a4e919061392e565b60015b611ad3573d8060008114611a81576040519150601f19603f3d011682016040523d82523d6000602084013e611a86565b606091505b506000815103611acb576040517f08c379a0000000000000000000000000000000000000000000000000000000008152600401611ac2906137f8565b60405180910390fd5b805181602001fd5b63150b7a0260e01b7bffffffffffffffffffffffffffffffffffffffffffffffffffffffff1916817bffffffffffffffffffffffffffffffffffffffffffffffffffffffff191614915050611b28565b600190505b949350505050565b606060405180602001604052806000815250905090565b6060611b5282610edc565b6000611b5c611b30565b90506000815111611b7c5760405180602001604052806000815250611ba7565b80611b8684611fb7565b604051602001611b97929190613854565b6040516020818303038152906040525b915050919050565b60007f01ffc9a7000000000000000000000000000000000000000000000000000000007bffffffffffffffffffffffffffffffffffffffffffffffffffffffff1916827bffffffffffffffffffffffffffffffffffffffffffffffffffffffff1916149050919050565b611c2584848484612085565b6001811115611c69576040517f08c379a0000000000000000000000000000000000000000000000000000000008152600401611c60906139cd565b60405180910390fd5b6000829050600073ffffffffffffffffffffffffffffffffffffffff168573ffffffffffffffffffffffffffffffffffffffff1603611cb057611cab816121ab565b611cef565b8373ffffffffffffffffffffffffffffffffffffffff168573ffffffffffffffffffffffffffffffffffffffff1614611cee57611ced85826121f4565b5b5b600073ffffffffffffffffffffffffffffffffffffffff168473ffffffffffffffffffffffffffffffffffffffff1603611d3157611d2c81612361565b611d70565b8473ffffffffffffffffffffffffffffffffffffffff168473ffffffffffffffffffffffffffffffffffffffff1614611d6f57611d6e8482612432565b5b5b5050505050565b600073ffffffffffffffffffffffffffffffffffffffff168273ffffffffffffffffffffffffffffffffffffffff1603611de6576040517f08c379a0000000000000000000000000000000000000000000000000000000008152600401611ddd90613a39565b60405180910390fd5b611def816118f5565b15611e2f576040517f08c379a0000000000000000000000000000000000000000000000000000000008152600401611e2690613aa5565b60405180910390fd5b611e3d600083836001611936565b611e46816118f5565b15611e86576040517f08c379a0000000000000000000000000000000000000000000000000000000008152600401611e7d90613aa5565b60405180910390fd5b6001600360008473ffffffffffffffffffffffffffffffffffffffff1673ffffffffffffffffffffffffffffffffffffffff16815260200190815260200160002060008282540192505081905550816002600083815260200190815260200160002060006101000a81548173ffffffffffffffffffffffffffffffffffffffff021916908373ffffffffffffffffffffffffffffffffffffffff160217905550808273ffffffffffffffffffffffffffffffffffffffff16600073ffffffffffffffffffffffffffffffffffffffff167fddf252ad1be2c89b69c2b068fc378daa952ba7f163c4a11628f55a4df523b3ef60405160405180910390a4611f90600083836001611948565b5050565b6000808273ffffffffffffffffffffffffffffffffffffffff163b119050919050565b606060006001611fc6846124b1565b01905060008167ffffffffffffffff811115611fe557611fe4612ba5565b5b6040519080825280601f01601f1916602001820160405280156120175781602001600182028036833780820191505090505b509050600082602001820190505b60011561207a578080600190039150507f3031323334353637383961626364656600000000000000000000000000000000600a86061a8153600a858161206e5761206d613ac5565b5b04945060008503612025575b819350505050919050565b60018111156121a557600073ffffffffffffffffffffffffffffffffffffffff168473ffffffffffffffffffffffffffffffffffffffff16146121195780600360008673ffffffffffffffffffffffffffffffffffffffff1673ffffffffffffffffffffffffffffffffffffffff16815260200190815260200160002060008282546121119190613af4565b925050819055505b600073ffffffffffffffffffffffffffffffffffffffff168373ffffffffffffffffffffffffffffffffffffffff16146121a45780600360008573ffffffffffffffffffffffffffffffffffffffff1673ffffffffffffffffffffffffffffffffffffffff168152602001908152602001600020600082825461219c9190613b28565b925050819055505b5b50505050565b6008805490506009600083815260200190815260200160002081905550600881908060018154018082558091505060019003906000526020600020016000909190919091505550565b60006001612201846109f0565b61220b9190613af4565b90506000600760008481526020019081526020016000205490508181146122f0576000600660008673ffffffffffffffffffffffffffffffffffffffff1673ffffffffffffffffffffffffffffffffffffffff168152602001908152602001600020600084815260200190815260200160002054905080600660008773ffffffffffffffffffffffffffffffffffffffff1673ffffffffffffffffffffffffffffffffffffffff168152602001908152602001600020600084815260200190815260200160002081905550816007600083815260200190815260200160002081905550505b6007600084815260200190815260200160002060009055600660008573ffffffffffffffffffffffffffffffffffffffff1673ffffffffffffffffffffffffffffffffffffffff16815260200190815260200160002060008381526020019081526020016000206000905550505050565b600060016008805490506123759190613af4565b90506000600960008481526020019081526020016000205490506000600883815481106123a5576123a4613354565b5b9060005260206000200154905080600883815481106123c7576123c6613354565b5b90600052602060002001819055508160096000838152602001908152602001600020819055506009600085815260200190815260200160002060009055600880548061241657612415613b5c565b5b6001900381819060005260206000200160009055905550505050565b600061243d836109f0565b905081600660008573ffffffffffffffffffffffffffffffffffffffff1673ffffffffffffffffffffffffffffffffffffffff168152602001908152602001600020600083815260200190815260200160002081905550806007600084815260200190815260200160002081905550505050565b600080600090507a184f03e93ff9f4daa797ed6e38ed64bf6a1f010000000000000000831061250f577a184f03e93ff9f4daa797ed6e38ed64bf6a1f010000000000000000838161250557612504613ac5565b5b0492506040810190505b6d04ee2d6d415b85acef8100000000831061254c576d04ee2d6d415b85acef8100000000838161254257612541613ac5565b5b0492506020810190505b662386f26fc10000831061257b57662386f26fc10000838161257157612570613ac5565b5b0492506010810190505b6305f5e10083106125a4576305f5e100838161259a57612599613ac5565b5b0492506008810190505b61271083106125c95761271083816125bf576125be613ac5565b5b0492506004810190505b606483106125ec57606483816125e2576125e1613ac5565b5b0492506002810190505b600a83106125fb576001810190505b80915050919050565b6000604051905090565b600080fd5b600080fd5b60007fffffffff0000000000000000000000000000000000000000000000000000000082169050919050565b61264d81612618565b811461265857600080fd5b50565b60008135905061266a81612644565b92915050565b6000602082840312156126865761268561260e565b5b60006126948482850161265b565b91505092915050565b60008115159050919050565b6126b28161269d565b82525050565b60006020820190506126cd60008301846126a9565b92915050565b600081519050919050565b600082825260208201905092915050565b60005b8381101561270d5780820151818401526020810190506126f2565b60008484015250505050565b6000601f19601f8301169050919050565b6000612735826126d3565b61273f81856126de565b935061274f8185602086016126ef565b61275881612719565b840191505092915050565b6000602082019050818103600083015261277d818461272a565b905092915050565b6000819050919050565b61279881612785565b81146127a357600080fd5b50565b6000813590506127b58161278f565b92915050565b6000602082840312156127d1576127d061260e565b5b60006127df848285016127a6565b91505092915050565b600073ffffffffffffffffffffffffffffffffffffffff82169050919050565b6000612813826127e8565b9050919050565b61282381612808565b82525050565b600060208201905061283e600083018461281a565b92915050565b61284d81612808565b811461285857600080fd5b50565b60008135905061286a81612844565b92915050565b600080604083850312156128875761288661260e565b5b60006128958582860161285b565b92505060206128a6858286016127a6565b9150509250929050565b6128b981612785565b82525050565b60006020820190506128d460008301846128b0565b92915050565b6000806000606084860312156128f3576128f261260e565b5b60006129018682870161285b565b93505060206129128682870161285b565b9250506040612923868287016127a6565b9150509250925092565b600080fd5b600080fd5b600080fd5b60008083601f8401126129525761295161292d565b5b8235905067ffffffffffffffff81111561296f5761296e612932565b5b60208301915083600182028301111561298b5761298a612937565b5b9250929050565b6000806000806000606086880312156129ae576129ad61260e565b5b600086013567ffffffffffffffff8111156129cc576129cb612613565b5b6129d88882890161293c565b9550955050602086013567ffffffffffffffff8111156129fb576129fa612613565b5b612a078882890161293c565b93509350506040612a1a8882890161285b565b9150509295509295909350565b600060208284031215612a3d57612a3c61260e565b5b6000612a4b8482850161285b565b91505092915050565b600081519050919050565b600082825260208201905092915050565b6000819050602082019050919050565b612a8981612785565b82525050565b6000612a9b8383612a80565b60208301905092915050565b6000602082019050919050565b6000612abf82612a54565b612ac98185612a5f565b9350612ad483612a70565b8060005b83811015612b05578151612aec8882612a8f565b9750612af783612aa7565b925050600181019050612ad8565b5085935050505092915050565b60006020820190508181036000830152612b2c8184612ab4565b905092915050565b612b3d8161269d565b8114612b4857600080fd5b50565b600081359050612b5a81612b34565b92915050565b60008060408385031215612b7757612b7661260e565b5b6000612b858582860161285b565b9250506020612b9685828601612b4b565b9150509250929050565b600080fd5b7f4e487b7100000000000000000000000000000000000000000000000000000000600052604160045260246000fd5b612bdd82612719565b810181811067ffffffffffffffff82111715612bfc57612bfb612ba5565b5b80604052505050565b6000612c0f612604565b9050612c1b8282612bd4565b919050565b600067ffffffffffffffff821115612c3b57612c3a612ba5565b5b612c4482612719565b9050602081019050919050565b82818337600083830152505050565b6000612c73612c6e84612c20565b612c05565b905082815260208101848484011115612c8f57612c8e612ba0565b5b612c9a848285612c51565b509392505050565b600082601f830112612cb757612cb661292d565b5b8135612cc7848260208601612c60565b91505092915050565b60008060008060808587031215612cea57612ce961260e565b5b6000612cf88782880161285b565b9450506020612d098782880161285b565b9350506040612d1a878288016127a6565b925050606085013567ffffffffffffffff811115612d3b57612d3a612613565b5b612d4787828801612ca2565b91505092959194509250565b60008060408385031215612d6a57612d6961260e565b5b6000612d788582860161285b565b9250506020612d898582860161285b565b9150509250929050565b7f4e487b7100000000000000000000000000000000000000000000000000000000600052602260045260246000fd5b60006002820490506001821680612dda57607f821691505b602082108103612ded57612dec612d93565b5b50919050565b7f4552433732313a20617070726f76616c20746f2063757272656e74206f776e6560008201527f7200000000000000000000000000000000000000000000000000000000000000602082015250565b6000612e4f6021836126de565b9150612e5a82612df3565b604082019050919050565b60006020820190508181036000830152612e7e81612e42565b9050919050565b7f4552433732313a20617070726f76652063616c6c6572206973206e6f7420746f60008201527f6b656e206f776e6572206f7220617070726f76656420666f7220616c6c000000602082015250565b6000612ee1603d836126de565b9150612eec82612e85565b604082019050919050565b60006020820190508181036000830152612f1081612ed4565b9050919050565b7f4552433732313a2063616c6c6572206973206e6f7420746f6b656e206f776e6560008201527f72206f7220617070726f76656400000000000000000000000000000000000000602082015250565b6000612f73602d836126de565b9150612f7e82612f17565b604082019050919050565b60006020820190508181036000830152612fa281612f66565b9050919050565b7f455243373231456e756d657261626c653a206f776e657220696e646578206f7560008201527f74206f6620626f756e6473000000000000000000000000000000000000000000602082015250565b6000613005602b836126de565b915061301082612fa9565b604082019050919050565b6000602082019050818103600083015261303481612ff8565b9050919050565b600082905092915050565b60008190508160005260206000209050919050565b60006020601f8301049050919050565b600082821b905092915050565b6000600883026130a87fffffffffffffffffffffffffffffffffffffffffffffffffffffffffffffffff8261306b565b6130b2868361306b565b95508019841693508086168417925050509392505050565b6000819050919050565b60006130ef6130ea6130e584612785565b6130ca565b612785565b9050919050565b6000819050919050565b613109836130d4565b61311d613115826130f6565b848454613078565b825550505050565b600090565b613132613125565b61313d818484613100565b505050565b5b818110156131615761315660008261312a565b600181019050613143565b5050565b601f8211156131a65761317781613046565b6131808461305b565b8101602085101561318f578190505b6131a361319b8561305b565b830182613142565b50505b505050565b600082821c905092915050565b60006131c9600019846008026131ab565b1980831691505092915050565b60006131e283836131b8565b9150826002028217905092915050565b6131fc838361303b565b67ffffffffffffffff81111561321557613214612ba5565b5b61321f8254612dc2565b61322a828285613165565b6000601f8311600181146132595760008415613247578287013590505b61325185826131d6565b8655506132b9565b601f19841661326786613046565b60005b8281101561328f5784890135825560018201915060208501945060208101905061326a565b868310156132ac57848901356132a8601f8916826131b8565b8355505b6001600288020188555050505b50505050505050565b7f455243373231456e756d657261626c653a20676c6f62616c20696e646578206f60008201527f7574206f6620626f756e64730000000000000000000000000000000000000000602082015250565b600061331e602c836126de565b9150613329826132c2565b604082019050919050565b6000602082019050818103600083015261334d81613311565b9050919050565b7f4e487b7100000000000000000000000000000000000000000000000000000000600052603260045260246000fd5b7f4e487b7100000000000000000000000000000000000000000000000000000000600052601160045260246000fd5b60006133bd82612785565b91507fffffffffffffffffffffffffffffffffffffffffffffffffffffffffffffffff82036133ef576133ee613383565b5b600182019050919050565b7f4552433732313a20696e76616c696420746f6b656e2049440000000000000000600082015250565b60006134306018836126de565b915061343b826133fa565b602082019050919050565b6000602082019050818103600083015261345f81613423565b9050919050565b7f4552433732313a2061646472657373207a65726f206973206e6f74206120766160008201527f6c6964206f776e65720000000000000000000000000000000000000000000000602082015250565b60006134c26029836126de565b91506134cd82613466565b604082019050919050565b600060208201905081810360008301526134f1816134b5565b9050919050565b7f4f776e61626c653a206e6577206f776e657220697320746865207a65726f206160008201527f6464726573730000000000000000000000000000000000000000000000000000602082015250565b60006135546026836126de565b915061355f826134f8565b604082019050919050565b6000602082019050818103600083015261358381613547565b9050919050565b7f4552433732313a207472616e736665722066726f6d20696e636f72726563742060008201527f6f776e6572000000000000000000000000000000000000000000000000000000602082015250565b60006135e66025836126de565b91506135f18261358a565b604082019050919050565b60006020820190508181036000830152613615816135d9565b9050919050565b7f4552433732313a207472616e7366657220746f20746865207a65726f2061646460008201527f7265737300000000000000000000000000000000000000000000000000000000602082015250565b60006136786024836126de565b91506136838261361c565b604082019050919050565b600060208201905081810360008301526136a78161366b565b9050919050565b7f4f776e61626c653a2063616c6c6572206973206e6f7420746865206f776e6572600082015250565b60006136e46020836126de565b91506136ef826136ae565b602082019050919050565b60006020820190508181036000830152613713816136d7565b9050919050565b7f4552433732313a20617070726f766520746f2063616c6c657200000000000000600082015250565b60006137506019836126de565b915061375b8261371a565b602082019050919050565b6000602082019050818103600083015261377f81613743565b9050919050565b7f4552433732313a207472616e7366657220746f206e6f6e20455243373231526560008201527f63656976657220696d706c656d656e7465720000000000000000000000000000602082015250565b60006137e26032836126de565b91506137ed82613786565b604082019050919050565b60006020820190508181036000830152613811816137d5565b9050919050565b600081905092915050565b600061382e826126d3565b6138388185613818565b93506138488185602086016126ef565b80840191505092915050565b60006138608285613823565b915061386c8284613823565b91508190509392505050565b600081519050919050565b600082825260208201905092915050565b600061389f82613878565b6138a98185613883565b93506138b98185602086016126ef565b6138c281612719565b840191505092915050565b60006080820190506138e2600083018761281a565b6138ef602083018661281a565b6138fc60408301856128b0565b818103606083015261390e8184613894565b905095945050505050565b60008151905061392881612644565b92915050565b6000602082840312156139445761394361260e565b5b600061395284828501613919565b91505092915050565b7f455243373231456e756d657261626c653a20636f6e736563757469766520747260008201527f616e7366657273206e6f7420737570706f727465640000000000000000000000602082015250565b60006139b76035836126de565b91506139c28261395b565b604082019050919050565b600060208201905081810360008301526139e6816139aa565b9050919050565b7f4552433732313a206d696e7420746f20746865207a65726f2061646472657373600082015250565b6000613a236020836126de565b9150613a2e826139ed565b602082019050919050565b60006020820190508181036000830152613a5281613a16565b9050919050565b7f4552433732313a20746f6b656e20616c7265616479206d696e74656400000000600082015250565b6000613a8f601c836126de565b9150613a9a82613a59565b602082019050919050565b60006020820190508181036000830152613abe81613a82565b9050919050565b7f4e487b7100000000000000000000000000000000000000000000000000000000600052601260045260246000fd5b6000613aff82612785565b9150613b0a83612785565b9250828203905081811115613b2257613b21613383565b5b92915050565b6000613b3382612785565b9150613b3e83612785565b9250828201905080821115613b5657613b55613383565b5b92915050565b7f4e487b7100000000000000000000000000000000000000000000000000000000600052603160045260246000fdfea26469706673582212209062076e9eb9b2b76731bc74c8300f33778b59835ca4ef9d195798904ed3511664736f6c63430008110033",
  "immutableReferences": {},
  "source": "// SPDX-License-Identifier: MIT\n// // from \"https://github.com/OpenZeppelin/openzeppelin-contracts/blob/master/contracts/token/ERC721/ERC721.sol\";\n// import \"./ERC721.sol\";\n// // from \"https://github.com/OpenZeppelin/openzeppelin-contracts/blob/master/contracts/access/Ownable.sol\";\n// import \"./Ownable.sol\";\npragma solidity ^0.8.9;\nimport \"@openzeppelin/contracts/token/ERC721/ERC721.sol\";\nimport \"@openzeppelin/contracts/token/ERC721/extensions/ERC721Enumerable.sol\";\nimport \"@openzeppelin/contracts/token/ERC721/extensions/ERC721URIStorage.sol\";\nimport \"@openzeppelin/contracts/access/Ownable.sol\";\nimport \"@openzeppelin/contracts/utils/Counters.sol\";\nimport \"./I_MedicalCertificate.sol\";\ncontract MedicalCertificate is ERC721, ERC721Enumerable, ERC721URIStorage, Ownable, I_MedicalCertificate{\n    using Counters for Counters.Counter;\n    Counters.Counter private _idCounter;\n    mapping (uint256 => string) private symptomsStorage;\n    mapping (uint256 => string) private levelsStorage;\n \n    constructor() ERC721(\"MedicalCertificate\", \"MC\") {}\n    function addCertificate(string calldata symptoms, string calldata levels, address patient) external{\n        uint256 id = _idCounter.current();\n        _idCounter.increment();\n        _safeMint(patient, id);\n        symptomsStorage[id] = symptoms;\n        levelsStorage[id] = levels;\n    }\n    function getSymptoms(uint256 id) external view returns(string memory symptoms){\n        return symptomsStorage[id];\n    }\n    function getLevels(uint256 id) external view returns(string memory levels){\n        return levelsStorage[id];\n    }\n    function listCertificatesIdOfAddress(address _address) external view returns(uint256[] memory certificateIds){\n        uint256 numberOfCertificates = balanceOf(_address);\n        uint256[] memory ret = new uint256[](numberOfCertificates);\n        for(uint256 i=0; i<numberOfCertificates; i++){\n            ret[i] = tokenOfOwnerByIndex(_address, i);\n        }\n        return ret;\n    }\n\n\n    function _beforeTokenTransfer(address from, address to, uint256 firstTokenId, uint256 batchSize) internal override(ERC721, ERC721Enumerable) {ERC721Enumerable._beforeTokenTransfer(from, to, firstTokenId, batchSize);}\n    function _burn(uint256 tokenId) internal override(ERC721, ERC721URIStorage){ERC721URIStorage._burn(tokenId);}\n    function supportsInterface(bytes4 interfaceId) public view override(ERC721, ERC721Enumerable) returns (bool){return ERC721Enumerable.supportsInterface(interfaceId);}\n    function tokenURI(uint256 tokenId) public view override(ERC721, ERC721URIStorage) returns (string memory){return ERC721URIStorage.tokenURI(tokenId);}\n    \n}",
  "sourcePath": "/home/danielchang/SoftwareEngineer/medical-certificate-smart-contract/contracts/MedicalCertificate_ERC721.sol",
  "compiler": {
    "name": "solc",
    "version": "0.8.17+commit.8df45f5f.Emscripten.clang"
  },
  "schemaVersion": "3.4.11",
  "updatedAt": "2022-12-06T14:15:29.892Z",
  "devdoc": {
    "kind": "dev",
    "methods": {
      "approve(address,uint256)": {
        "details": "See {IERC721-approve}."
      },
      "balanceOf(address)": {
        "details": "See {IERC721-balanceOf}."
      },
      "getApproved(uint256)": {
        "details": "See {IERC721-getApproved}."
      },
      "isApprovedForAll(address,address)": {
        "details": "See {IERC721-isApprovedForAll}."
      },
      "name()": {
        "details": "See {IERC721Metadata-name}."
      },
      "owner()": {
        "details": "Returns the address of the current owner."
      },
      "ownerOf(uint256)": {
        "details": "See {IERC721-ownerOf}."
      },
      "renounceOwnership()": {
        "details": "Leaves the contract without owner. It will not be possible to call `onlyOwner` functions anymore. Can only be called by the current owner. NOTE: Renouncing ownership will leave the contract without an owner, thereby removing any functionality that is only available to the owner."
      },
      "safeTransferFrom(address,address,uint256)": {
        "details": "See {IERC721-safeTransferFrom}."
      },
      "safeTransferFrom(address,address,uint256,bytes)": {
        "details": "See {IERC721-safeTransferFrom}."
      },
      "setApprovalForAll(address,bool)": {
        "details": "See {IERC721-setApprovalForAll}."
      },
      "symbol()": {
        "details": "See {IERC721Metadata-symbol}."
      },
      "tokenByIndex(uint256)": {
        "details": "See {IERC721Enumerable-tokenByIndex}."
      },
      "tokenOfOwnerByIndex(address,uint256)": {
        "details": "See {IERC721Enumerable-tokenOfOwnerByIndex}."
      },
      "totalSupply()": {
        "details": "See {IERC721Enumerable-totalSupply}."
      },
      "transferFrom(address,address,uint256)": {
        "details": "See {IERC721-transferFrom}."
      },
      "transferOwnership(address)": {
        "details": "Transfers ownership of the contract to a new account (`newOwner`). Can only be called by the current owner."
      }
    },
    "version": 1
  },
  "userdoc": {
    "kind": "user",
    "methods": {},
    "version": 1
  }
}